{
  "address": "0x1DB137930053EA5B941b1626229BB4B921fD474F",
  "abi": [
    {
      "inputs": [],
      "stateMutability": "nonpayable",
      "type": "constructor"
    },
    {
      "anonymous": false,
      "inputs": [
        {
          "indexed": true,
          "internalType": "uint256",
          "name": "tokenId",
          "type": "uint256"
        },
        {
          "indexed": true,
          "internalType": "address",
          "name": "institution",
          "type": "address"
        },
        {
          "indexed": false,
          "internalType": "string",
          "name": "message",
          "type": "string"
        },
        {
          "indexed": false,
          "internalType": "uint256",
          "name": "timestamp",
          "type": "uint256"
        }
      ],
      "name": "AccreditationPerformed",
      "type": "event"
    },
    {
      "anonymous": false,
      "inputs": [
        {
          "indexed": true,
          "internalType": "address",
          "name": "owner",
          "type": "address"
        },
        {
          "indexed": true,
          "internalType": "address",
          "name": "approved",
          "type": "address"
        },
        {
          "indexed": true,
          "internalType": "uint256",
          "name": "tokenId",
          "type": "uint256"
        }
      ],
      "name": "Approval",
      "type": "event"
    },
    {
      "anonymous": false,
      "inputs": [
        {
          "indexed": true,
          "internalType": "address",
          "name": "owner",
          "type": "address"
        },
        {
          "indexed": true,
          "internalType": "address",
          "name": "operator",
          "type": "address"
        },
        {
          "indexed": false,
          "internalType": "bool",
          "name": "approved",
          "type": "bool"
        }
      ],
      "name": "ApprovalForAll",
      "type": "event"
    },
    {
      "anonymous": false,
      "inputs": [
        {
          "indexed": true,
          "internalType": "uint256",
          "name": "tokenId",
          "type": "uint256"
        },
        {
          "indexed": true,
          "internalType": "address",
          "name": "owner",
          "type": "address"
        },
        {
          "indexed": true,
          "internalType": "address",
          "name": "authorized",
          "type": "address"
        }
      ],
      "name": "AuctionAuthorizationRevoked",
      "type": "event"
    },
    {
      "anonymous": false,
      "inputs": [
        {
          "indexed": true,
          "internalType": "uint256",
          "name": "tokenId",
          "type": "uint256"
        },
        {
          "indexed": true,
          "internalType": "address",
          "name": "owner",
          "type": "address"
        },
        {
          "indexed": true,
          "internalType": "address",
          "name": "authorized",
          "type": "address"
        }
      ],
      "name": "AuctionAuthorized",
      "type": "event"
    },
    {
      "anonymous": false,
      "inputs": [
        {
          "indexed": true,
          "internalType": "uint256",
          "name": "tokenId",
          "type": "uint256"
        },
        {
          "indexed": true,
          "internalType": "address",
          "name": "seller",
          "type": "address"
        },
        {
          "indexed": false,
          "internalType": "uint256",
          "name": "startPrice",
          "type": "uint256"
        },
        {
          "indexed": false,
          "internalType": "uint256",
          "name": "endTime",
          "type": "uint256"
        },
        {
          "indexed": false,
          "internalType": "uint256",
          "name": "startTime",
          "type": "uint256"
        }
      ],
      "name": "AuctionCreated",
      "type": "event"
    },
    {
      "anonymous": false,
      "inputs": [
        {
          "indexed": true,
          "internalType": "uint256",
          "name": "tokenId",
          "type": "uint256"
        },
        {
          "indexed": true,
          "internalType": "address",
          "name": "winner",
          "type": "address"
        },
        {
          "indexed": false,
          "internalType": "uint256",
          "name": "amount",
          "type": "uint256"
        },
        {
          "indexed": false,
          "internalType": "uint256",
          "name": "timestamp",
          "type": "uint256"
        }
      ],
      "name": "AuctionEnded",
      "type": "event"
    },
    {
      "anonymous": false,
      "inputs": [
        {
          "indexed": false,
          "internalType": "uint256",
          "name": "_fromTokenId",
          "type": "uint256"
        },
        {
          "indexed": false,
          "internalType": "uint256",
          "name": "_toTokenId",
          "type": "uint256"
        }
      ],
      "name": "BatchMetadataUpdate",
      "type": "event"
    },
    {
      "anonymous": false,
      "inputs": [
        {
          "indexed": true,
          "internalType": "address",
          "name": "sender",
          "type": "address"
        },
        {
          "indexed": false,
          "internalType": "uint256",
          "name": "amount",
          "type": "uint256"
        }
      ],
      "name": "FeesReceived",
      "type": "event"
    },
    {
      "anonymous": false,
      "inputs": [
        {
          "indexed": true,
          "internalType": "address",
          "name": "owner",
          "type": "address"
        },
        {
          "indexed": false,
          "internalType": "uint256",
          "name": "amount",
          "type": "uint256"
        }
      ],
      "name": "FeesWithdrawn",
      "type": "event"
    },
    {
      "anonymous": false,
      "inputs": [
        {
          "indexed": true,
          "internalType": "address",
          "name": "sender",
          "type": "address"
        },
        {
          "indexed": false,
          "internalType": "uint256",
          "name": "tokenId",
          "type": "uint256"
        },
        {
          "indexed": false,
          "internalType": "uint256",
          "name": "integral",
          "type": "uint256"
        },
        {
          "indexed": false,
          "internalType": "uint256",
          "name": "timestamp",
          "type": "uint256"
        }
      ],
      "name": "Integral",
      "type": "event"
    },
    {
      "anonymous": false,
      "inputs": [
        {
          "indexed": false,
          "internalType": "uint256",
          "name": "newListingFeePercentage",
          "type": "uint256"
        }
      ],
      "name": "ListingFeePercentageUpdated",
      "type": "event"
    },
    {
      "anonymous": false,
      "inputs": [
        {
          "indexed": false,
          "internalType": "uint256",
          "name": "_tokenId",
          "type": "uint256"
        }
      ],
      "name": "MetadataUpdate",
      "type": "event"
    },
    {
      "anonymous": false,
      "inputs": [
        {
          "indexed": true,
          "internalType": "uint256",
          "name": "tokenId",
          "type": "uint256"
        },
        {
          "indexed": true,
          "internalType": "address",
          "name": "bidder",
          "type": "address"
        },
        {
          "indexed": false,
          "internalType": "uint256",
          "name": "amount",
          "type": "uint256"
        },
        {
          "indexed": false,
          "internalType": "uint256",
          "name": "timestamp",
          "type": "uint256"
        }
      ],
      "name": "NewBid",
      "type": "event"
    },
    {
      "anonymous": false,
      "inputs": [
        {
          "indexed": true,
          "internalType": "address",
          "name": "previousOwner",
          "type": "address"
        },
        {
          "indexed": true,
          "internalType": "address",
          "name": "newOwner",
          "type": "address"
        }
      ],
      "name": "OwnershipTransferred",
      "type": "event"
    },
    {
      "anonymous": false,
      "inputs": [
        {
          "indexed": false,
          "internalType": "uint256",
          "name": "transactionId",
          "type": "uint256"
        },
        {
          "indexed": true,
          "internalType": "uint256",
          "name": "tokenId",
          "type": "uint256"
        },
        {
          "indexed": true,
          "internalType": "address",
          "name": "creator",
          "type": "address"
        },
        {
          "indexed": false,
          "internalType": "uint256",
          "name": "amount",
          "type": "uint256"
        },
        {
          "indexed": false,
          "internalType": "uint256",
          "name": "timestamp",
          "type": "uint256"
        }
      ],
      "name": "RoyaltyPaid",
      "type": "event"
    },
    {
      "anonymous": false,
      "inputs": [
        {
          "indexed": true,
          "internalType": "address",
          "name": "from",
          "type": "address"
        },
        {
          "indexed": true,
          "internalType": "address",
          "name": "to",
          "type": "address"
        },
        {
          "indexed": false,
          "internalType": "string",
          "name": "transactionType",
          "type": "string"
        },
        {
          "indexed": false,
          "internalType": "uint256",
          "name": "amount",
          "type": "uint256"
        },
        {
          "indexed": false,
          "internalType": "uint256",
          "name": "timestamp",
          "type": "uint256"
        },
        {
          "indexed": false,
          "internalType": "uint256",
          "name": "transactionId",
          "type": "uint256"
        }
      ],
      "name": "TransactionRecord",
      "type": "event"
    },
    {
      "anonymous": false,
      "inputs": [
        {
          "indexed": true,
          "internalType": "address",
          "name": "from",
          "type": "address"
        },
        {
          "indexed": true,
          "internalType": "address",
          "name": "to",
          "type": "address"
        },
        {
          "indexed": true,
          "internalType": "uint256",
          "name": "tokenId",
          "type": "uint256"
        }
      ],
      "name": "Transfer",
      "type": "event"
    },
    {
      "inputs": [],
      "name": "MAX_LISTING_FEE_PERCENTAGE",
      "outputs": [
        {
          "internalType": "uint256",
          "name": "",
          "type": "uint256"
        }
      ],
      "stateMutability": "view",
      "type": "function"
    },
    {
      "inputs": [
        {
          "internalType": "address",
          "name": "to",
          "type": "address"
        },
        {
          "internalType": "uint256",
          "name": "tokenId",
          "type": "uint256"
        }
      ],
      "name": "approve",
      "outputs": [],
      "stateMutability": "nonpayable",
      "type": "function"
    },
    {
      "inputs": [
        {
          "internalType": "uint256",
          "name": "tokenId",
          "type": "uint256"
        },
        {
          "internalType": "address",
          "name": "user",
          "type": "address"
        }
      ],
      "name": "authorizeAuctionEnder",
      "outputs": [],
      "stateMutability": "nonpayable",
      "type": "function"
    },
    {
      "inputs": [
        {
          "internalType": "address",
          "name": "owner",
          "type": "address"
        }
      ],
      "name": "balanceOf",
      "outputs": [
        {
          "internalType": "uint256",
          "name": "",
          "type": "uint256"
        }
      ],
      "stateMutability": "view",
      "type": "function"
    },
    {
      "inputs": [
        {
          "internalType": "uint256",
          "name": "priceInWei",
          "type": "uint256"
        }
      ],
      "name": "calculateListingFee",
      "outputs": [
        {
          "internalType": "uint256",
          "name": "",
          "type": "uint256"
        }
      ],
      "stateMutability": "view",
      "type": "function"
    },
    {
      "inputs": [
        {
          "internalType": "uint256",
          "name": "tokenId",
          "type": "uint256"
        },
        {
          "internalType": "string",
          "name": "uri",
          "type": "string"
        },
        {
          "internalType": "uint256",
          "name": "startPrice",
          "type": "uint256"
        },
        {
          "internalType": "uint256",
          "name": "blocktime",
          "type": "uint256"
        }
      ],
      "name": "createAuction",
      "outputs": [],
      "stateMutability": "payable",
      "type": "function"
    },
    {
      "inputs": [
        {
          "internalType": "uint256",
          "name": "tokenId",
          "type": "uint256"
        },
        {
          "internalType": "uint256",
          "name": "currentTime",
          "type": "uint256"
        }
      ],
      "name": "endAuction",
      "outputs": [],
      "stateMutability": "nonpayable",
      "type": "function"
    },
    {
      "inputs": [],
      "name": "getAccreditableNFTs",
      "outputs": [
        {
          "components": [
            {
              "internalType": "uint256",
              "name": "tokenId",
              "type": "uint256"
            },
            {
              "internalType": "uint256",
              "name": "price",
              "type": "uint256"
            },
            {
              "internalType": "address payable",
              "name": "seller",
              "type": "address"
            },
            {
              "internalType": "bool",
              "name": "isListed",
              "type": "bool"
            },
            {
              "internalType": "string",
              "name": "tokenUri",
              "type": "string"
            },
            {
              "internalType": "bool",
              "name": "isAccredited",
              "type": "bool"
            },
            {
              "internalType": "uint256",
              "name": "accreditedCount",
              "type": "uint256"
            },
            {
              "internalType": "address[]",
              "name": "accreditedInstitutions",
              "type": "address[]"
            }
          ],
          "internalType": "struct YourCollectible.NftItem[]",
          "name": "",
          "type": "tuple[]"
        }
      ],
      "stateMutability": "view",
      "type": "function"
    },
    {
      "inputs": [
        {
          "internalType": "uint256",
          "name": "tokenId",
          "type": "uint256"
        }
      ],
      "name": "getAccreditedCount",
      "outputs": [
        {
          "internalType": "uint256",
          "name": "accreditedCount",
          "type": "uint256"
        }
      ],
      "stateMutability": "view",
      "type": "function"
    },
    {
      "inputs": [],
      "name": "getAllAuctions",
      "outputs": [
        {
          "components": [
            {
              "internalType": "uint256",
              "name": "tokenId",
              "type": "uint256"
            },
            {
              "internalType": "string",
              "name": "uri",
              "type": "string"
            },
            {
              "internalType": "address payable",
              "name": "seller",
              "type": "address"
            },
            {
              "internalType": "uint256",
              "name": "startPrice",
              "type": "uint256"
            },
            {
              "internalType": "uint256",
              "name": "highestBid",
              "type": "uint256"
            },
            {
              "internalType": "address payable",
              "name": "highestBidder",
              "type": "address"
            },
            {
              "internalType": "uint256",
              "name": "endTime",
              "type": "uint256"
            },
            {
              "internalType": "bool",
              "name": "isActive",
              "type": "bool"
            },
            {
              "internalType": "bool",
              "name": "isroyalty",
              "type": "bool"
            },
            {
              "internalType": "uint256",
              "name": "num",
              "type": "uint256"
            },
            {
              "internalType": "uint256",
              "name": "bidCount",
              "type": "uint256"
            },
            {
              "internalType": "address[]",
              "name": "bidders",
              "type": "address[]"
            },
            {
              "internalType": "uint256",
              "name": "startTime",
              "type": "uint256"
            }
          ],
          "internalType": "struct YourCollectible.Auction[]",
          "name": "",
          "type": "tuple[]"
        }
      ],
      "stateMutability": "view",
      "type": "function"
    },
    {
      "inputs": [
        {
          "internalType": "uint256",
          "name": "tokenId",
          "type": "uint256"
        }
      ],
      "name": "getApproved",
      "outputs": [
        {
          "internalType": "address",
          "name": "",
          "type": "address"
        }
      ],
      "stateMutability": "view",
      "type": "function"
    },
    {
      "inputs": [
        {
          "internalType": "uint256",
          "name": "tokenId",
          "type": "uint256"
        }
      ],
      "name": "getAuction",
      "outputs": [
        {
          "components": [
            {
              "internalType": "uint256",
              "name": "tokenId",
              "type": "uint256"
            },
            {
              "internalType": "string",
              "name": "uri",
              "type": "string"
            },
            {
              "internalType": "address payable",
              "name": "seller",
              "type": "address"
            },
            {
              "internalType": "uint256",
              "name": "startPrice",
              "type": "uint256"
            },
            {
              "internalType": "uint256",
              "name": "highestBid",
              "type": "uint256"
            },
            {
              "internalType": "address payable",
              "name": "highestBidder",
              "type": "address"
            },
            {
              "internalType": "uint256",
              "name": "endTime",
              "type": "uint256"
            },
            {
              "internalType": "bool",
              "name": "isActive",
              "type": "bool"
            },
            {
              "internalType": "bool",
              "name": "isroyalty",
              "type": "bool"
            },
            {
              "internalType": "uint256",
              "name": "num",
              "type": "uint256"
            },
            {
              "internalType": "uint256",
              "name": "bidCount",
              "type": "uint256"
            },
            {
              "internalType": "address[]",
              "name": "bidders",
              "type": "address[]"
            },
            {
              "internalType": "uint256",
              "name": "startTime",
              "type": "uint256"
            }
          ],
          "internalType": "struct YourCollectible.Auction",
          "name": "",
          "type": "tuple"
        }
      ],
      "stateMutability": "view",
      "type": "function"
    },
    {
      "inputs": [
        {
          "internalType": "uint256",
          "name": "tokenId",
          "type": "uint256"
        }
      ],
      "name": "getAuthorizedAddresses",
      "outputs": [
        {
          "internalType": "address[]",
          "name": "",
          "type": "address[]"
        }
      ],
      "stateMutability": "view",
      "type": "function"
    },
    {
      "inputs": [],
      "name": "getAuthorizedTokenIds",
      "outputs": [
        {
          "internalType": "uint256[]",
          "name": "",
          "type": "uint256[]"
        }
      ],
      "stateMutability": "view",
      "type": "function"
    },
    {
      "inputs": [
        {
          "internalType": "address",
          "name": "user",
          "type": "address"
        }
      ],
      "name": "getAuthorizedTokenIds",
      "outputs": [
        {
          "internalType": "uint256[]",
          "name": "",
          "type": "uint256[]"
        }
      ],
      "stateMutability": "view",
      "type": "function"
    },
    {
      "inputs": [],
      "name": "getContractAddress",
      "outputs": [
        {
          "internalType": "address",
          "name": "",
          "type": "address"
        }
      ],
      "stateMutability": "view",
      "type": "function"
    },
    {
      "inputs": [
        {
          "internalType": "uint256",
          "name": "tokenId",
          "type": "uint256"
        }
      ],
      "name": "getNftItem",
      "outputs": [
        {
          "components": [
            {
              "internalType": "uint256",
              "name": "tokenId",
              "type": "uint256"
            },
            {
              "internalType": "uint256",
              "name": "price",
              "type": "uint256"
            },
            {
              "internalType": "address payable",
              "name": "seller",
              "type": "address"
            },
            {
              "internalType": "bool",
              "name": "isListed",
              "type": "bool"
            },
            {
              "internalType": "string",
              "name": "tokenUri",
              "type": "string"
            },
            {
              "internalType": "bool",
              "name": "isAccredited",
              "type": "bool"
            },
            {
              "internalType": "uint256",
              "name": "accreditedCount",
              "type": "uint256"
            },
            {
              "internalType": "address[]",
              "name": "accreditedInstitutions",
              "type": "address[]"
            }
          ],
          "internalType": "struct YourCollectible.NftItem",
          "name": "",
          "type": "tuple"
        }
      ],
      "stateMutability": "view",
      "type": "function"
    },
    {
      "inputs": [
        {
          "internalType": "address",
          "name": "userAddress",
          "type": "address"
        }
      ],
      "name": "getUser",
      "outputs": [
        {
          "internalType": "string",
          "name": "",
          "type": "string"
        },
        {
          "internalType": "bytes32",
          "name": "",
          "type": "bytes32"
        },
        {
          "internalType": "string",
          "name": "",
          "type": "string"
        },
        {
          "internalType": "uint256",
          "name": "",
          "type": "uint256"
        }
      ],
      "stateMutability": "view",
      "type": "function"
    },
    {
      "inputs": [
        {
          "internalType": "address",
          "name": "userAddress",
          "type": "address"
        }
      ],
      "name": "getUserMessage",
      "outputs": [
        {
          "internalType": "string",
          "name": "",
          "type": "string"
        },
        {
          "internalType": "string",
          "name": "",
          "type": "string"
        },
        {
          "internalType": "uint256",
          "name": "",
          "type": "uint256"
        },
        {
          "internalType": "string",
          "name": "",
          "type": "string"
        }
      ],
      "stateMutability": "view",
      "type": "function"
    },
    {
      "inputs": [
        {
          "internalType": "address",
          "name": "owner",
          "type": "address"
        },
        {
          "internalType": "address",
          "name": "operator",
          "type": "address"
        }
      ],
      "name": "isApprovedForAll",
      "outputs": [
        {
          "internalType": "bool",
          "name": "",
          "type": "bool"
        }
      ],
      "stateMutability": "view",
      "type": "function"
    },
    {
      "inputs": [
        {
          "internalType": "uint256",
          "name": "tokenId",
          "type": "uint256"
        },
        {
          "internalType": "address",
          "name": "user",
          "type": "address"
        }
      ],
      "name": "isAuthorizedForAuction",
      "outputs": [
        {
          "internalType": "bool",
          "name": "",
          "type": "bool"
        }
      ],
      "stateMutability": "view",
      "type": "function"
    },
    {
      "inputs": [],
      "name": "listingFeePercentage",
      "outputs": [
        {
          "internalType": "uint256",
          "name": "",
          "type": "uint256"
        }
      ],
      "stateMutability": "view",
      "type": "function"
    },
    {
      "inputs": [
        {
          "internalType": "address",
          "name": "to",
          "type": "address"
        },
        {
          "internalType": "string",
          "name": "uri",
          "type": "string"
        },
        {
          "internalType": "uint96",
          "name": "royaltyFeeNumber",
          "type": "uint96"
        }
      ],
      "name": "mintItem",
      "outputs": [
        {
          "internalType": "uint256",
          "name": "",
          "type": "uint256"
        }
      ],
      "stateMutability": "nonpayable",
      "type": "function"
    },
    {
      "inputs": [
        {
          "internalType": "uint256",
          "name": "tokenId",
          "type": "uint256"
        },
        {
          "internalType": "bool",
          "name": "isAccredited",
          "type": "bool"
        }
      ],
      "name": "modiyAccredited",
      "outputs": [],
      "stateMutability": "nonpayable",
      "type": "function"
    },
    {
      "inputs": [],
      "name": "name",
      "outputs": [
        {
          "internalType": "string",
          "name": "",
          "type": "string"
        }
      ],
      "stateMutability": "view",
      "type": "function"
    },
    {
      "inputs": [],
      "name": "owner",
      "outputs": [
        {
          "internalType": "address",
          "name": "",
          "type": "address"
        }
      ],
      "stateMutability": "view",
      "type": "function"
    },
    {
      "inputs": [
        {
          "internalType": "uint256",
          "name": "tokenId",
          "type": "uint256"
        }
      ],
      "name": "ownerOf",
      "outputs": [
        {
          "internalType": "address",
          "name": "",
          "type": "address"
        }
      ],
      "stateMutability": "view",
      "type": "function"
    },
    {
      "inputs": [
        {
          "internalType": "uint256",
          "name": "tokenId",
          "type": "uint256"
        },
        {
          "internalType": "string",
          "name": "message",
          "type": "string"
        }
      ],
      "name": "performAccreditation",
      "outputs": [],
      "stateMutability": "nonpayable",
      "type": "function"
    },
    {
      "inputs": [
        {
          "internalType": "uint256",
          "name": "tokenId",
          "type": "uint256"
        }
      ],
      "name": "placeBid",
      "outputs": [],
      "stateMutability": "payable",
      "type": "function"
    },
    {
      "inputs": [
        {
          "internalType": "string",
          "name": "_name",
          "type": "string"
        },
        {
          "internalType": "string",
          "name": "_password",
          "type": "string"
        },
        {
          "internalType": "string",
          "name": "_bio",
          "type": "string"
        },
        {
          "internalType": "bool",
          "name": "_isAccrediting",
          "type": "bool"
        }
      ],
      "name": "registerUser",
      "outputs": [],
      "stateMutability": "nonpayable",
      "type": "function"
    },
    {
      "inputs": [],
      "name": "renounceOwnership",
      "outputs": [],
      "stateMutability": "nonpayable",
      "type": "function"
    },
    {
      "inputs": [
        {
          "internalType": "uint256",
          "name": "tokenId",
          "type": "uint256"
        },
        {
          "internalType": "address",
          "name": "user",
          "type": "address"
        }
      ],
      "name": "revokeAuctionAuthorization",
      "outputs": [],
      "stateMutability": "nonpayable",
      "type": "function"
    },
    {
      "inputs": [
        {
          "internalType": "uint256",
          "name": "tokenId",
          "type": "uint256"
        },
        {
          "internalType": "uint256",
          "name": "salePrice",
          "type": "uint256"
        }
      ],
      "name": "royaltyInfo",
      "outputs": [
        {
          "internalType": "address",
          "name": "",
          "type": "address"
        },
        {
          "internalType": "uint256",
          "name": "",
          "type": "uint256"
        }
      ],
      "stateMutability": "view",
      "type": "function"
    },
    {
      "inputs": [
        {
          "internalType": "address",
          "name": "from",
          "type": "address"
        },
        {
          "internalType": "address",
          "name": "to",
          "type": "address"
        },
        {
          "internalType": "uint256",
          "name": "tokenId",
          "type": "uint256"
        }
      ],
      "name": "safeTransferFrom",
      "outputs": [],
      "stateMutability": "nonpayable",
      "type": "function"
    },
    {
      "inputs": [
        {
          "internalType": "address",
          "name": "from",
          "type": "address"
        },
        {
          "internalType": "address",
          "name": "to",
          "type": "address"
        },
        {
          "internalType": "uint256",
          "name": "tokenId",
          "type": "uint256"
        },
        {
          "internalType": "bytes",
          "name": "data",
          "type": "bytes"
        }
      ],
      "name": "safeTransferFrom",
      "outputs": [],
      "stateMutability": "nonpayable",
      "type": "function"
    },
    {
      "inputs": [
        {
          "internalType": "address",
          "name": "operator",
          "type": "address"
        },
        {
          "internalType": "bool",
          "name": "approved",
          "type": "bool"
        }
      ],
      "name": "setApprovalForAll",
      "outputs": [],
      "stateMutability": "nonpayable",
      "type": "function"
    },
    {
      "inputs": [
        {
          "internalType": "uint256",
          "name": "_newListingFeePercentage",
          "type": "uint256"
        }
      ],
      "name": "setListingFeePercentage",
      "outputs": [],
      "stateMutability": "nonpayable",
      "type": "function"
    },
    {
      "inputs": [
        {
          "internalType": "bytes4",
          "name": "interfaceId",
          "type": "bytes4"
        }
      ],
      "name": "supportsInterface",
      "outputs": [
        {
          "internalType": "bool",
          "name": "",
          "type": "bool"
        }
      ],
      "stateMutability": "view",
      "type": "function"
    },
    {
      "inputs": [],
      "name": "symbol",
      "outputs": [
        {
          "internalType": "string",
          "name": "",
          "type": "string"
        }
      ],
      "stateMutability": "view",
      "type": "function"
    },
    {
      "inputs": [
        {
          "internalType": "uint256",
          "name": "index",
          "type": "uint256"
        }
      ],
      "name": "tokenByIndex",
      "outputs": [
        {
          "internalType": "uint256",
          "name": "",
          "type": "uint256"
        }
      ],
      "stateMutability": "view",
      "type": "function"
    },
    {
      "inputs": [
        {
          "internalType": "address",
          "name": "owner",
          "type": "address"
        },
        {
          "internalType": "uint256",
          "name": "index",
          "type": "uint256"
        }
      ],
      "name": "tokenOfOwnerByIndex",
      "outputs": [
        {
          "internalType": "uint256",
          "name": "",
          "type": "uint256"
        }
      ],
      "stateMutability": "view",
      "type": "function"
    },
    {
      "inputs": [
        {
          "internalType": "uint256",
          "name": "tokenId",
          "type": "uint256"
        }
      ],
      "name": "tokenURI",
      "outputs": [
        {
          "internalType": "string",
          "name": "",
          "type": "string"
        }
      ],
      "stateMutability": "view",
      "type": "function"
    },
    {
      "inputs": [],
      "name": "totalFeesCollected",
      "outputs": [
        {
          "internalType": "uint256",
          "name": "",
          "type": "uint256"
        }
      ],
      "stateMutability": "view",
      "type": "function"
    },
    {
      "inputs": [],
      "name": "totalSupply",
      "outputs": [
        {
          "internalType": "uint256",
          "name": "",
          "type": "uint256"
        }
      ],
      "stateMutability": "view",
      "type": "function"
    },
    {
      "inputs": [
        {
          "internalType": "address",
          "name": "from",
          "type": "address"
        },
        {
          "internalType": "address",
          "name": "to",
          "type": "address"
        },
        {
          "internalType": "uint256",
          "name": "tokenId",
          "type": "uint256"
        }
      ],
      "name": "transferFrom",
      "outputs": [],
      "stateMutability": "nonpayable",
      "type": "function"
    },
    {
      "inputs": [
        {
          "internalType": "address",
          "name": "newOwner",
          "type": "address"
        }
      ],
      "name": "transferOwnership",
      "outputs": [],
      "stateMutability": "nonpayable",
      "type": "function"
    },
    {
      "inputs": [
        {
          "internalType": "string",
          "name": "_assessUri",
          "type": "string"
        }
      ],
      "name": "updateUserInfo",
      "outputs": [],
      "stateMutability": "nonpayable",
      "type": "function"
    },
    {
      "inputs": [
        {
          "internalType": "address",
          "name": "userAddress",
          "type": "address"
        },
        {
          "internalType": "string",
          "name": "userName",
          "type": "string"
        },
        {
          "internalType": "string",
          "name": "password",
          "type": "string"
        }
      ],
      "name": "verifyPwd",
      "outputs": [
        {
          "internalType": "bool",
          "name": "",
          "type": "bool"
        },
        {
          "internalType": "bool",
          "name": "",
          "type": "bool"
        }
      ],
      "stateMutability": "view",
      "type": "function"
    },
    {
      "inputs": [],
      "name": "withdrawFees",
      "outputs": [],
      "stateMutability": "nonpayable",
      "type": "function"
    }
  ],
  "transactionHash": "0x7b68a23a222c43bb22be30352375c6c8609df496bbc2f267bf1cf42f8bf7042a",
  "args": [],
  "numDeployments": 1,
  "solcInputHash": "188947ad2930485ddf507d1d9bf8f8d5",
  "bytecode": "0x608060405260fa6018553480156200001657600080fd5b506040518060400160405280600f81526020016e596f7572436f6c6c65637469626c6560881b815250604051806040016040528060028152602001612d2560f11b81525081600290816200006b91906200019d565b5060036200007a82826200019d565b5050506200009762000091620000a260201b60201c565b620000a6565b6001600e5562000269565b3390565b600d80546001600160a01b038381166001600160a01b0319831681179093556040519116919082907f8be0079c531659141344cd1fd0a4f28419497f9722a3daafe3b4186f6b6457e090600090a35050565b634e487b7160e01b600052604160045260246000fd5b600181811c908216806200012357607f821691505b6020821081036200014457634e487b7160e01b600052602260045260246000fd5b50919050565b601f8211156200019857600081815260208120601f850160051c81016020861015620001735750805b601f850160051c820191505b8181101562000194578281556001016200017f565b5050505b505050565b81516001600160401b03811115620001b957620001b9620000f8565b620001d181620001ca84546200010e565b846200014a565b602080601f831160018114620002095760008415620001f05750858301515b600019600386901b1c1916600185901b17855562000194565b600085815260208120601f198616915b828110156200023a5788860151825594840194600190910190840162000219565b5085821015620002595787850151600019600388901b60f8161c191681555b5050505050600190811b01905550565b615f6480620002796000396000f3fe6080604052600436106102ae5760003560e01c806368828489116101755780639ef1d46f116100dc578063cbd2bdfd11610095578063d956d18f1161006f578063d956d18f146108bc578063deb82ed9146108dc578063e985e9c5146108f2578063f2fde38b1461093b57600080fd5b8063cbd2bdfd1461083a578063d5809a111461085c578063d8be30fc1461088c57600080fd5b80639ef1d46f14610763578063a22cb46514610783578063b272f940146107a3578063b88d4fde146107c3578063bf06eda6146107e3578063c87b56dd1461081a57600080fd5b80638da5cb5b1161012e5780638da5cb5b146106bb5780638edb3390146106d957806395d89b41146106ec5780639640b49214610701578063997572ea1461072e5780639979ef451461075057600080fd5b806368828489146105dc5780636f1a0af5146105fc5780636f77926b1461062957806370a0823114610659578063715018a61461067957806378bd79351461068e57600080fd5b80632cd8bf8411610219578063476343ee116101d2578063476343ee1461053157806347afe4371461054657806349731a0f146105665780634f6ccce71461058657806360c6d8ae146105a65780636352211e146105bc57600080fd5b80632cd8bf841461047e5780632f745c591461049e57806332a2c5d0146104be5780633877248d146104d157806342842e0e146104f157806342b83cf51461051157600080fd5b80630a3f70091161026b5780630a3f7009146103a857806318160ddd146103c857806323b872dd146103dd57806328858720146103fd5780632a55205a1461041f5780632af356c21461045e57600080fd5b806301782f15146102b357806301ffc9a7146102d557806306fdde031461030a578063081812fc1461032c5780630888de3914610364578063095ea7b314610388575b600080fd5b3480156102bf57600080fd5b506102d36102ce3660046152c0565b61095b565b005b3480156102e157600080fd5b506102f56102f036600461531c565b610e20565b60405190151581526020015b60405180910390f35b34801561031657600080fd5b5061031f610e31565b6040516103019190615389565b34801561033857600080fd5b5061034c61034736600461539c565b610ec3565b6040516001600160a01b039091168152602001610301565b34801561037057600080fd5b5061037a60185481565b604051908152602001610301565b34801561039457600080fd5b506102d36103a33660046153d1565b610eea565b3480156103b457600080fd5b506102f56103c33660046153fb565b610fff565b3480156103d457600080fd5b50600a5461037a565b3480156103e957600080fd5b506102d36103f8366004615427565b61102a565b34801561040957600080fd5b5061041261105b565b6040516103019190615530565b34801561042b57600080fd5b5061043f61043a366004615585565b6112e9565b604080516001600160a01b039093168352602083019190915201610301565b34801561046a57600080fd5b506102d361047936600461539c565b611395565b34801561048a57600080fd5b5061037a61049936600461539c565b61142a565b3480156104aa57600080fd5b5061037a6104b93660046153d1565b611447565b3480156104ca57600080fd5b503061034c565b3480156104dd57600080fd5b5061037a6104ec3660046155a7565b6114dd565b3480156104fd57600080fd5b506102d361050c366004615427565b611632565b34801561051d57600080fd5b506102d361052c3660046153fb565b61164d565b34801561053d57600080fd5b506102d3611807565b34801561055257600080fd5b506102d3610561366004615585565b611962565b34801561057257600080fd5b506102d36105813660046153fb565b611f45565b34801561059257600080fd5b5061037a6105a136600461539c565b6122cc565b3480156105b257600080fd5b5061037a60115481565b3480156105c857600080fd5b5061034c6105d736600461539c565b61235f565b3480156105e857600080fd5b506102d36105f7366004615624565b6123bf565b34801561060857600080fd5b5061061c61061736600461539c565b612422565b6040516103019190615647565b34801561063557600080fd5b5061064961064436600461565a565b6125a5565b6040516103019493929190615675565b34801561066557600080fd5b5061037a61067436600461565a565b6127f6565b34801561068557600080fd5b506102d361287c565b34801561069a57600080fd5b506106ae6106a936600461539c565b61288e565b6040516103019190615790565b3480156106c757600080fd5b50600d546001600160a01b031661034c565b6102d36106e73660046157a3565b612a3d565b3480156106f857600080fd5b5061031f612d54565b34801561070d57600080fd5b5061072161071c36600461539c565b612d63565b60405161030191906157f9565b34801561073a57600080fd5b50610743612dcf565b604051610301919061580c565b6102d361075e36600461539c565b612e2f565b34801561076f57600080fd5b506102d361077e366004615850565b613258565b34801561078f57600080fd5b506102d361079e3660046158e8565b6133b0565b3480156107af57600080fd5b506107436107be36600461565a565b6133bb565b3480156107cf57600080fd5b506102d36107de366004615912565b613426565b3480156107ef57600080fd5b506108036107fe36600461598d565b61345e565b604080519215158352901515602083015201610301565b34801561082657600080fd5b5061031f61083536600461539c565b61372e565b34801561084657600080fd5b5061084f613739565b6040516103019190615a00565b34801561086857600080fd5b5061037a61087736600461539c565b60009081526015602052604090206005015490565b34801561089857600080fd5b506108ac6108a736600461565a565b6139e9565b6040516103019493929190615a55565b3480156108c857600080fd5b506102d36108d7366004615a9f565b613c8a565b3480156108e857600080fd5b5061037a6103e881565b3480156108fe57600080fd5b506102f561090d366004615ad3565b6001600160a01b03918216600090815260076020908152604080832093909416825291909152205460ff1690565b34801561094757600080fd5b506102d361095636600461565a565b613d59565b3360009081526012602052604090206004015460ff166109e05760405162461bcd60e51b815260206004820152603560248201527f4f6e6c79206163637265646974696e6720696e737469747574696f6e7320636160448201527437103832b93337b936903a3434b99030b1ba34b7b760591b60648201526084015b60405180910390fd5b33600090815260126020526040812060060180546109fd90615afd565b905011610a585760405162461bcd60e51b8152602060048201526024808201527f41636372656469746174696f6e20696e666f206d75737420626520636f6d706c604482015263195d195960e21b60648201526084016109d7565b60008281526015602052604090206004015460ff16610ab95760405162461bcd60e51b815260206004820181905260248201527f4e4654206973206e6f742073657420666f722061636372656469746174696f6e60448201526064016109d7565b600082815260156020908152604082206006810180546001818101835591855292842090920180546001600160a01b03191633179055848352600501805491929091610b06908490615b4d565b9091555050336000908152601260205260408120600501805460019290610b2e908490615b4d565b909155505060408051838152600160208201524281830152905133917fc424236d12197e1ec7bea17e53f7631b14e52d78ce30527c0337514923afe0e0919081900360600190a26040805160a0810182523360009081526012602052919091208054829190610b9c90615afd565b80601f0160208091040260200160405190810160405280929190818152602001828054610bc890615afd565b8015610c155780601f10610bea57610100808354040283529160200191610c15565b820191906000526020600020905b815481529060010190602001808311610bf857829003601f168201915b50505091835250506020808201859052604080830185905233606084018190524260809094019390935260009283526013909152902081518190610c599082615bae565b506020820151600182015560408201516002820190610c789082615bae565b5060608201516003820180546001600160a01b0319166001600160a01b039092169190911790556080909101516004909101556040805160a0810182523360009081526012602052919091208054829190610cd290615afd565b80601f0160208091040260200160405190810160405280929190818152602001828054610cfe90615afd565b8015610d4b5780601f10610d2057610100808354040283529160200191610d4b565b820191906000526020600020905b815481529060010190602001808311610d2e57829003601f168201915b50505091835250506020808201859052604080830185905233606084015242608090930192909252600085815260149091522081518190610d8c9082615bae565b506020820151600182015560408201516002820190610dab9082615bae565b5060608201516003820180546001600160a01b0319166001600160a01b03909216919091179055608090910151600490910155604051339083907f663aef1797b13c8d11ad351eb974b24dfd1690b5aa6e3af8d11c7cca7fb5fea390610e149085904290615c6d565b60405180910390a35050565b6000610e2b82613dd2565b92915050565b606060028054610e4090615afd565b80601f0160208091040260200160405190810160405280929190818152602001828054610e6c90615afd565b8015610eb95780601f10610e8e57610100808354040283529160200191610eb9565b820191906000526020600020905b815481529060010190602001808311610e9c57829003601f168201915b5050505050905090565b6000610ece82613ddd565b506000908152600660205260409020546001600160a01b031690565b6000610ef58261235f565b9050806001600160a01b0316836001600160a01b031603610f625760405162461bcd60e51b815260206004820152602160248201527f4552433732313a20617070726f76616c20746f2063757272656e74206f776e656044820152603960f91b60648201526084016109d7565b336001600160a01b0382161480610f7e5750610f7e813361090d565b610ff05760405162461bcd60e51b815260206004820152603d60248201527f4552433732313a20617070726f76652063616c6c6572206973206e6f7420746f60448201527f6b656e206f776e6572206f7220617070726f76656420666f7220616c6c00000060648201526084016109d7565b610ffa8383613e3c565b505050565b6000918252601a602090815260408084206001600160a01b0393909316845291905290205460ff1690565b6110343382613eaa565b6110505760405162461bcd60e51b81526004016109d790615c8f565b610ffa838383613f29565b60606000611068600f5490565b9050600060015b8281116110b05760008181526015602052604090206004015460ff161561109e578161109a81615cdc565b9250505b806110a881615cdc565b91505061106f565b506000816001600160401b038111156110cb576110cb615215565b60405190808252806020026020018201604052801561110457816020015b6110f16150b1565b8152602001906001900390816110e95790505b509050600060015b8481116112df5760008181526015602052604090206004015460ff16156112cd576000818152601560209081526040918290208251610100810184528154815260018201549281019290925260028101546001600160a01b03811693830193909352600160a01b90920460ff161515606082015260038201805491929160808401919061119890615afd565b80601f01602080910402602001604051908101604052809291908181526020018280546111c490615afd565b80156112115780601f106111e657610100808354040283529160200191611211565b820191906000526020600020905b8154815290600101906020018083116111f457829003601f168201915b505050505081526020016004820160009054906101000a900460ff16151515158152602001600582015481526020016006820180548060200260200160405190810160405280929190818152602001828054801561129857602002820191906000526020600020905b81546001600160a01b0316815260019091019060200180831161127a575b5050505050815250508383815181106112b3576112b3615cf5565b602002602001018190525081806112c990615cdc565b9250505b806112d781615cdc565b91505061110c565b5090949350505050565b60008281526001602090815260408083208151808301909252546001600160a01b038116808352600160a01b9091046001600160601b031692820192909252829161135e5750604080518082019091526000546001600160a01b0381168252600160a01b90046001600160601b031660208201525b60208101516000906127109061137d906001600160601b031687615d0b565b6113879190615d22565b915196919550909350505050565b61139d613f3d565b6103e88111156113ef5760405162461bcd60e51b815260206004820152601e60248201527f45786365656473206d6178696d756d206665652070657263656e74616765000060448201526064016109d7565b60188190556040518181527f7b7b531d40c1aa89dac7360f225e5660c63799638af64655583d3ec191be11e29060200160405180910390a150565b60006127106018548361143d9190615d0b565b610e2b9190615d22565b6000611452836127f6565b82106114b45760405162461bcd60e51b815260206004820152602b60248201527f455243373231456e756d657261626c653a206f776e657220696e646578206f7560448201526a74206f6620626f756e647360a81b60648201526084016109d7565b506001600160a01b03919091166000908152600860209081526040808320938352929052205490565b60006114ed600f80546001019055565b60006114f8600f5490565b90506115048582613f97565b61150e8185613fb1565b61151981338561407c565b600061152361418a565b85604051602001611535929190615d44565b60408051808303601f19018152610100830182528483526000602080850182815233868601908152606087018481526080880186815260a0890186905260c089018690528751868152808601895260e08a01528a86526015909452959093208651815590516001820155915160028301805495511515600160a01b026001600160a81b03199096166001600160a01b039092169190911794909417909355915190935060038201906115e79082615bae565b5060a082015160048201805460ff191691151591909117905560c0820151600582015560e08201518051611625916006840191602090910190615103565b5092979650505050505050565b610ffa83838360405180602001604052806000815250613426565b336116578361235f565b6001600160a01b0316146116a35760405162461bcd60e51b81526020600482015260136024820152722737ba103a3432903a37b5b2b71037bbb732b960691b60448201526064016109d7565b6001600160a01b0381166116f05760405162461bcd60e51b8152602060048201526014602482015273496e76616c69642075736572206164647265737360601b60448201526064016109d7565b6000828152601a602090815260408083206001600160a01b038516845290915290205460ff16156117635760405162461bcd60e51b815260206004820152601a60248201527f4164647265737320616c726561647920617574686f72697a656400000000000060448201526064016109d7565b6000828152601a602090815260408083206001600160a01b038516808552908352818420805460ff19166001908117909155868552601b8452828520805480830182559086528486200180546001600160a01b03191683179055818552601c8452828520805491820181558552928420909201859055519091339185917fff460b40c549c863c9b27df0d30952055e6a9d7ab0a5dfa776a5aca07a56e55b91a45050565b61180f613f3d565b6118176141aa565b6011548061185d5760405162461bcd60e51b81526020600482015260136024820152724e6f206665657320746f20776974686472617760681b60448201526064016109d7565b60006011819055600d546040516001600160a01b039091169083908381818185875af1925050503d80600081146118b0576040519150601f19603f3d011682016040523d82523d6000602084013e6118b5565b606091505b50509050806119065760405162461bcd60e51b815260206004820152601760248201527f4661696c656420746f207769746864726177206665657300000000000000000060448201526064016109d7565b600d546001600160a01b03166001600160a01b03167fc0819c13be868895eb93e40eaceb96de976442fa1d404e5c55f14bb65a8c489a8360405161194c91815260200190565b60405180910390a250506119606001600e55565b565b60008281526019602052604090206007015460ff166119bb5760405162461bcd60e51b815260206004820152601560248201527441756374696f6e206973206e6f742061637469766560581b60448201526064016109d7565b600082815260196020526040902060060154811015611a1c5760405162461bcd60e51b815260206004820152601960248201527f41756374696f6e20686173206e6f7420656e646564207965740000000000000060448201526064016109d7565b33611a268361235f565b6001600160a01b03161480611a5457506000828152601a6020908152604080832033845290915290205460ff165b611aa05760405162461bcd60e51b815260206004820152601d60248201527f4e6f7420617574686f72697a656420746f20656e642061756374696f6e00000060448201526064016109d7565b600082815260196020526040902060078101805460ff19169055600501546001600160a01b031615611f0657600082815260196020526040902060048101546007909101548190610100900460ff1615611bca57600080611b0186856112e9565b9092509050611b108184615d73565b92508015611bc7576040516001600160a01b0383169082156108fc029083906000818181858888f19350505050158015611b4e573d6000803e3d6000fd5b50611b5d601080546001019055565b6001600160a01b03821630600080516020615eed8339815191528342611b8260105490565b604080516080808252600e908201526d149bde585b1d1e54185e5b595b9d60921b60a08201526020810194909452830191909152606082015260c00160405180910390a35b50505b60006064611bd984600a615d0b565b611be39190615d22565b9050611bef8183615d73565b600086815260156020908152604080832060060180548251818502810185019093528083529496509293909291830182828015611c5557602002820191906000526020600020905b81546001600160a01b03168152600190910190602001808311611c37575b50505050509050600081511115611d8a576000815183611c759190615d22565b905060005b8251811015611d8357828181518110611c9557611c95615cf5565b60200260200101516001600160a01b03166108fc839081150290604051600060405180830381858888f19350505050158015611cd5573d6000803e3d6000fd5b50611ce4601080546001019055565b828181518110611cf657611cf6615cf5565b60200260200101516001600160a01b0316306001600160a01b0316600080516020615eed8339815191528442611d2b60105490565b6040805160808082526010908201526f41636372656469746174696f6e46656560801b60a08201526020810194909452830191909152606082015260c00160405180910390a380611d7b81615cdc565b915050611c7a565b5050611d97565b611d948284615b4d565b92505b6000868152601960205260408082206002015490516001600160a01b039091169185156108fc02918691818181858888f19350505050158015611dde573d6000803e3d6000fd5b50611ded601080546001019055565b6000868152601960205260409020600201546001600160a01b031630600080516020615eed8339815191528542611e2360105490565b60408051608080825260119082015270105d58dd1a5bdb94d95d1d1b195b595b9d607a1b60a08201526020810194909452830191909152606082015260c00160405180910390a3611e7386614203565b600086815260196020526040902060028101546005909101546001600160a01b039182169116611ea482828a613f29565b6000888152601960209081526040918290206005015482518881529182018a90526001600160a01b0316918a917fe9ba83469fc8ee4260dd274fd43b5a54f2df813ad21c4637d53084d1f3866b37910160405180910390a35050505050505050565b604080516000808252602082018490529184917fe9ba83469fc8ee4260dd274fd43b5a54f2df813ad21c4637d53084d1f3866b379101610e14565b5050565b33611f4f8361235f565b6001600160a01b031614611f9b5760405162461bcd60e51b81526020600482015260136024820152722737ba103a3432903a37b5b2b71037bbb732b960691b60448201526064016109d7565b6001600160a01b038116611fe85760405162461bcd60e51b8152602060048201526014602482015273496e76616c69642075736572206164647265737360601b60448201526064016109d7565b6000828152601a602090815260408083206001600160a01b03851684529091528120805460ff191690555b6000838152601b6020526040902054811015612155576000838152601b6020526040902080546001600160a01b03841691908390811061205557612055615cf5565b6000918252602090912001546001600160a01b031603612143576000838152601b60205260409020805461208b90600190615d73565b8154811061209b5761209b615cf5565b6000918252602080832090910154858352601b909152604090912080546001600160a01b0390921691839081106120d4576120d4615cf5565b600091825260208083209190910180546001600160a01b0319166001600160a01b039490941693909317909255848152601b9091526040902080548061211c5761211c615d86565b600082815260209020810160001990810180546001600160a01b0319169055019055612155565b8061214d81615cdc565b915050612013565b5060005b6001600160a01b0382166000908152601c602052604090205481101561228f576001600160a01b0382166000908152601c602052604090208054849190839081106121a6576121a6615cf5565b90600052602060002001540361227d576001600160a01b0382166000908152601c6020526040902080546121dc90600190615d73565b815481106121ec576121ec615cf5565b9060005260206000200154601c6000846001600160a01b03166001600160a01b03168152602001908152602001600020828154811061222d5761222d615cf5565b60009182526020808320909101929092556001600160a01b0384168152601c9091526040902080548061226257612262615d86565b6001900381819060005260206000200160009055905561228f565b8061228781615cdc565b915050612159565b506040516001600160a01b03821690339084907fbb7a4ce7127a7634ffe548a0beabca6f4b99e9e1c9ad99ff9ade8dc94cd8317390600090a45050565b60006122d7600a5490565b821061233a5760405162461bcd60e51b815260206004820152602c60248201527f455243373231456e756d657261626c653a20676c6f62616c20696e646578206f60448201526b7574206f6620626f756e647360a01b60648201526084016109d7565b600a828154811061234d5761234d615cf5565b90600052602060002001549050919050565b6000818152600460205260408120546001600160a01b031680610e2b5760405162461bcd60e51b8152602060048201526018602482015277115490cdcc8c4e881a5b9d985b1a59081d1bdad95b88125160421b60448201526064016109d7565b336123c98361235f565b6001600160a01b031614806123e357506123e38233610fff565b6123ff5760405162461bcd60e51b81526004016109d790615d9c565b600091825260156020526040909120600401805460ff1916911515919091179055565b61242a6150b1565b6000828152601560209081526040918290208251610100810184528154815260018201549281019290925260028101546001600160a01b03811693830193909352600160a01b90920460ff161515606082015260038201805491929160808401919061249590615afd565b80601f01602080910402602001604051908101604052809291908181526020018280546124c190615afd565b801561250e5780601f106124e35761010080835404028352916020019161250e565b820191906000526020600020905b8154815290600101906020018083116124f157829003601f168201915b505050505081526020016004820160009054906101000a900460ff16151515158152602001600582015481526020016006820180548060200260200160405190810160405280929190818152602001828054801561259557602002820191906000526020600020905b81546001600160a01b03168152600190910190602001808311612577575b5050505050815250509050919050565b60606000606060008060126000876001600160a01b03166001600160a01b031681526020019081526020016000206040518060e00160405290816000820180546125ee90615afd565b80601f016020809104026020016040519081016040528092919081815260200182805461261a90615afd565b80156126675780601f1061263c57610100808354040283529160200191612667565b820191906000526020600020905b81548152906001019060200180831161264a57829003601f168201915b50505091835250506001820154602082015260028201546001600160a01b031660408201526003820180546060909201916126a190615afd565b80601f01602080910402602001604051908101604052809291908181526020018280546126cd90615afd565b801561271a5780601f106126ef5761010080835404028352916020019161271a565b820191906000526020600020905b8154815290600101906020018083116126fd57829003601f168201915b5050509183525050600482015460ff16151560208201526005820154604082015260068201805460609092019161275090615afd565b80601f016020809104026020016040519081016040528092919081815260200182805461277c90615afd565b80156127c95780601f1061279e576101008083540402835291602001916127c9565b820191906000526020600020905b8154815290600101906020018083116127ac57829003601f168201915b50505091909252505081516020830151606084015160a090940151919a9099509297509550909350505050565b60006001600160a01b0382166128605760405162461bcd60e51b815260206004820152602960248201527f4552433732313a2061646472657373207a65726f206973206e6f7420612076616044820152683634b21037bbb732b960b91b60648201526084016109d7565b506001600160a01b031660009081526005602052604090205490565b612884613f3d565b61196060006143cd565b612896615168565b60196000838152602001908152602001600020604051806101a0016040529081600082015481526020016001820180546128cf90615afd565b80601f01602080910402602001604051908101604052809291908181526020018280546128fb90615afd565b80156129485780601f1061291d57610100808354040283529160200191612948565b820191906000526020600020905b81548152906001019060200180831161292b57829003601f168201915b505050918352505060028201546001600160a01b0390811660208084019190915260038401546040808501919091526004850154606085015260058501549092166080840152600684015460a0840152600784015460ff808216151560c08601526101009182900416151560e08501526008850154908401526009840154610120840152600a84018054835181840281018401909452808452610140909401939091830182828015612a2357602002820191906000526020600020905b81546001600160a01b03168152600190910190602001808311612a05575b50505050508152602001600b820154815250509050919050565b33612a478561235f565b6001600160a01b03161480612a615750612a618433610fff565b612a7d5760405162461bcd60e51b81526004016109d790615d9c565b60008481526019602052604090206007015460ff1615612aed5760405162461bcd60e51b815260206004820152602560248201527f41756374696f6e20616c72656164792061637469766520666f722074686973206044820152643a37b5b2b760d91b60648201526084016109d7565b428111612b3c5760405162461bcd60e51b815260206004820152601f60248201527f4475726174696f6e206d7573742062652067726561746572207468616e20300060448201526064016109d7565b6000612b4885846112e9565b50905060006001600160a01b0382163314612b61575060015b6000429050604051806101a00160405280888152602001878152602001336001600160a01b031681526020018681526020016000815260200160006001600160a01b031681526020018581526020016001151581526020018315158152602001600081526020016000815260200160006001600160401b03811115612be857612be8615215565b604051908082528060200260200182016040528015612c11578160200160208202803683370190505b50815260209081018390526000898152601982526040902082518155908201516001820190612c409082615bae565b5060408201516002820180546001600160a01b039283166001600160a01b031991821617909155606084015160038401556080840151600484015560a084015160058401805491909316911617905560c0820151600682015560e08201516007820180546101008086015115150261ff00199315159390931661ffff1990911617919091179055610120820151600882015561014082015160098201556101608201518051612cf991600a840191602090910190615103565b506101809190910151600b90910155604080518681526020810186905242818301529051339189917f05f9bf100dd0ca9f37f08e0526690286d357ed7d6c5a4ac29730440b6e2dfd629181900360600190a350505050505050565b606060038054610e4090615afd565b6000818152601b6020908152604091829020805483518184028101840190945280845260609392830182828015612dc357602002820191906000526020600020905b81546001600160a01b03168152600190910190602001808311612da5575b50505050509050919050565b336000908152601c6020908152604091829020805483518184028101840190945280845260609392830182828015610eb957602002820191906000526020600020905b815481526020019060010190808311612e12575050505050905090565b60008181526019602052604090206007015460ff16612e885760405162461bcd60e51b815260206004820152601560248201527441756374696f6e206973206e6f742061637469766560581b60448201526064016109d7565b6000818152601960205260409020600601544210612edc5760405162461bcd60e51b8152602060048201526011602482015270105d58dd1a5bdb881a185cc8195b991959607a1b60448201526064016109d7565b6000818152601960205260409020600301543411612f485760405162461bcd60e51b815260206004820152602360248201527f426964206d75737420626520686967686572207468616e20737461727420707260448201526269636560e81b60648201526084016109d7565b6000818152601960205260409020600401543411612fbc5760405162461bcd60e51b815260206004820152602b60248201527f426964206d75737420626520686967686572207468616e2063757272656e742060448201526a1a1a59da195cdd08189a5960aa1b60648201526084016109d7565b612fca601080546001019055565b6000612fd560105490565b6000838152601960205260409020600501549091506001600160a01b03161561311257600082815260196020526040808220600581015460049091015491516001600160a01b039091169290839083908381818185875af1925050503d806000811461305d576040519150601f19603f3d011682016040523d82523d6000602084013e613062565b606091505b50509050806130b35760405162461bcd60e51b815260206004820181905260248201527f4661696c656420746f20726566756e642070726576696f75732062696464657260448201526064016109d7565b60408051608080825260099082015268109a591499599d5b9960ba1b60a08201526020810184905242818301526060810186905290516001600160a01b038516913091600080516020615eed8339815191529181900360c00190a35050505b60008281526019602052604081203460048201556005810180546001600160a01b0319163317905560090180546001929061314e908490615b4d565b9091555050600082815260196020908152604091829020600a0180548351818402810184019094528084526131c293928301828280156131b757602002820191906000526020600020905b81546001600160a01b03168152600190910190602001808311613199575b50505050503361441f565b61321f5760008281526019602052604081206008018054600192906131e8908490615b4d565b909155505060008281526019602090815260408220600a01805460018101825590835291200180546001600160a01b031916331790555b60408051348152426020820152339184917fcde18333b910a25ba5421e992ecee5c314e557346e94ab2ab424658bbb3707e69101610e14565b336000908152601260205260409020805461327290615afd565b1590506132c15760405162461bcd60e51b815260206004820152601760248201527f5573657220616c7265616479207265676973746572656400000000000000000060448201526064016109d7565b6040518060e001604052808581526020016132dd856020015190565b8152336020808301829052604080840187905285151560608501526000608085018190528151808401835281815260a0909501949094529183526012905290208151819061332b9082615bae565b506020820151600182015560408201516002820180546001600160a01b0319166001600160a01b03909216919091179055606082015160038201906133709082615bae565b50608082015160048201805460ff191691151591909117905560a0820151600582015560c082015160068201906133a79082615bae565b50505050505050565b611f41338383614484565b6001600160a01b0381166000908152601c6020908152604091829020805483518184028101840190945280845260609392830182828015612dc357602002820191906000526020600020905b8154815260200190600101908083116134075750505050509050919050565b6134303383613eaa565b61344c5760405162461bcd60e51b81526004016109d790615c8f565b61345884848484614552565b50505050565b6001600160a01b0383166000908152601260205260408120805482919061348490615afd565b90506000036134cb5760405162461bcd60e51b8152602060048201526013602482015272155cd95c881b9bdd081c9959da5cdd195c9959606a1b60448201526064016109d7565b6001600160a01b038516600090815260126020526040808220815160e081019092528054829082906134fc90615afd565b80601f016020809104026020016040519081016040528092919081815260200182805461352890615afd565b80156135755780601f1061354a57610100808354040283529160200191613575565b820191906000526020600020905b81548152906001019060200180831161355857829003601f168201915b50505091835250506001820154602082015260028201546001600160a01b031660408201526003820180546060909201916135af90615afd565b80601f01602080910402602001604051908101604052809291908181526020018280546135db90615afd565b80156136285780601f106135fd57610100808354040283529160200191613628565b820191906000526020600020905b81548152906001019060200180831161360b57829003601f168201915b5050509183525050600482015460ff16151560208201526005820154604082015260068201805460609092019161365e90615afd565b80601f016020809104026020016040519081016040528092919081815260200182805461368a90615afd565b80156136d75780601f106136ac576101008083540402835291602001916136d7565b820191906000526020600020905b8154815290600101906020018083116136ba57829003601f168201915b505050505081525050905060006136f2826000015187614585565b9050600061370e8360200151613709886020015190565b6145de565b905081801561371a5750805b836080015194509450505050935093915050565b6060610e2b82614618565b60606000613746600f5490565b9050600060015b82811161378e5760008181526019602052604090206007015460ff161561377c578161377881615cdc565b9250505b8061378681615cdc565b91505061374d565b506000816001600160401b038111156137a9576137a9615215565b6040519080825280602002602001820160405280156137e257816020015b6137cf615168565b8152602001906001900390816137c75790505b509050600060015b8481116112df5760008181526019602052604090206007015460ff16156139d75760196000828152602001908152602001600020604051806101a00160405290816000820154815260200160018201805461384490615afd565b80601f016020809104026020016040519081016040528092919081815260200182805461387090615afd565b80156138bd5780601f10613892576101008083540402835291602001916138bd565b820191906000526020600020905b8154815290600101906020018083116138a057829003601f168201915b505050918352505060028201546001600160a01b0390811660208084019190915260038401546040808501919091526004850154606085015260058501549092166080840152600684015460a0840152600784015460ff808216151560c08601526101009182900416151560e08501526008850154908401526009840154610120840152600a8401805483518184028101840190945280845261014090940193909183018282801561399857602002820191906000526020600020905b81546001600160a01b0316815260019091019060200180831161397a575b50505050508152602001600b820154815250508383815181106139bd576139bd615cf5565b602002602001018190525081806139d390615cdc565b9250505b806139e181615cdc565b9150506137ea565b60608060006060600060126000876001600160a01b03166001600160a01b031681526020019081526020016000206040518060e0016040529081600082018054613a3290615afd565b80601f0160208091040260200160405190810160405280929190818152602001828054613a5e90615afd565b8015613aab5780601f10613a8057610100808354040283529160200191613aab565b820191906000526020600020905b815481529060010190602001808311613a8e57829003601f168201915b50505091835250506001820154602082015260028201546001600160a01b03166040820152600382018054606090920191613ae590615afd565b80601f0160208091040260200160405190810160405280929190818152602001828054613b1190615afd565b8015613b5e5780601f10613b3357610100808354040283529160200191613b5e565b820191906000526020600020905b815481529060010190602001808311613b4157829003601f168201915b5050509183525050600482015460ff161515602082015260058201546040820152600682018054606090920191613b9490615afd565b80601f0160208091040260200160405190810160405280929190818152602001828054613bc090615afd565b8015613c0d5780601f10613be257610100808354040283529160200191613c0d565b820191906000526020600020905b815481529060010190602001808311613bf057829003601f168201915b50505050508152505090508060800151613c695760405162461bcd60e51b815260206004820152601e60248201527f4e6f7420616e206163637265646974696e6720696e737469747574696f6e000060448201526064016109d7565b8051606082015160a083015160c09093015191989097509195509350915050565b3360009081526012602052604090206004015460ff16613cec5760405162461bcd60e51b815260206004820152601e60248201527f4e6f7420616e206163637265646974696e6720696e737469747574696f6e000060448201526064016109d7565b6000815111613d3d5760405162461bcd60e51b815260206004820152601b60248201527f41737365737320696e666f2063616e6e6f7420626520656d707479000000000060448201526064016109d7565b336000908152601260205260409020600601611f418282615bae565b613d61613f3d565b6001600160a01b038116613dc65760405162461bcd60e51b815260206004820152602660248201527f4f776e61626c653a206e6577206f776e657220697320746865207a65726f206160448201526564647265737360d01b60648201526084016109d7565b613dcf816143cd565b50565b6000610e2b82614713565b6000818152600460205260409020546001600160a01b0316613dcf5760405162461bcd60e51b8152602060048201526018602482015277115490cdcc8c4e881a5b9d985b1a59081d1bdad95b88125160421b60448201526064016109d7565b600081815260066020526040902080546001600160a01b0319166001600160a01b0384169081179091558190613e718261235f565b6001600160a01b03167f8c5be1e5ebec7d5bd14f71427d1e84f3dd0314c0f7b2291e5b200ac8c7c3b92560405160405180910390a45050565b600080613eb68361235f565b9050806001600160a01b0316846001600160a01b03161480613efd57506001600160a01b0380821660009081526007602090815260408083209388168352929052205460ff165b80613f215750836001600160a01b0316613f1684610ec3565b6001600160a01b0316145b949350505050565b613f34838383614738565b610ffa81614203565b600d546001600160a01b031633146119605760405162461bcd60e51b815260206004820181905260248201527f4f776e61626c653a2063616c6c6572206973206e6f7420746865206f776e657260448201526064016109d7565b611f418282604051806020016040528060008152506148a9565b6000828152600460205260409020546001600160a01b031661402c5760405162461bcd60e51b815260206004820152602e60248201527f45524337323155524953746f726167653a2055524920736574206f66206e6f6e60448201526d32bc34b9ba32b73a103a37b5b2b760911b60648201526084016109d7565b6000828152600c602052604090206140448282615bae565b506040518281527ff8e1a15aba9398e019f0b49df1a4fde98ee17ae345cb5f6b5e2c27f5033e8ce79060200160405180910390a15050565b6127106001600160601b03821611156140ea5760405162461bcd60e51b815260206004820152602a60248201527f455243323938313a20726f79616c7479206665652077696c6c206578636565646044820152692073616c65507269636560b01b60648201526084016109d7565b6001600160a01b0382166141405760405162461bcd60e51b815260206004820152601b60248201527f455243323938313a20496e76616c696420706172616d6574657273000000000060448201526064016109d7565b6040805180820182526001600160a01b0393841681526001600160601b0392831660208083019182526000968752600190529190942093519051909116600160a01b029116179055565b6060604051806060016040528060228152602001615f0d60229139905090565b6002600e54036141fc5760405162461bcd60e51b815260206004820152601f60248201527f5265656e7472616e637947756172643a207265656e7472616e742063616c6c0060448201526064016109d7565b6002600e55565b6000818152601b60205260408120905b81548110156143b557600082828154811061423057614230615cf5565b6000918252602080832090910154868352601a825260408084206001600160a01b0390921680855291909252908220805460ff1916905591505b6001600160a01b0382166000908152601c60205260409020548110156143a0576001600160a01b0382166000908152601c602052604090208054869190839081106142b7576142b7615cf5565b90600052602060002001540361438e576001600160a01b0382166000908152601c6020526040902080546142ed90600190615d73565b815481106142fd576142fd615cf5565b9060005260206000200154601c6000846001600160a01b03166001600160a01b03168152602001908152602001600020828154811061433e5761433e615cf5565b60009182526020808320909101929092556001600160a01b0384168152601c9091526040902080548061437357614373615d86565b600190038181906000526020600020016000905590556143a0565b8061439881615cdc565b91505061426a565b505080806143ad90615cdc565b915050614213565b506000828152601b60205260408120611f41916151e6565b600d80546001600160a01b038381166001600160a01b0319831681179093556040519116919082907f8be0079c531659141344cd1fd0a4f28419497f9722a3daafe3b4186f6b6457e090600090a35050565b6000805b835181101561447a57826001600160a01b031684828151811061444857614448615cf5565b60200260200101516001600160a01b031603614468576001915050610e2b565b8061447281615cdc565b915050614423565b5060009392505050565b816001600160a01b0316836001600160a01b0316036144e55760405162461bcd60e51b815260206004820152601960248201527f4552433732313a20617070726f766520746f2063616c6c65720000000000000060448201526064016109d7565b6001600160a01b03838116600081815260076020908152604080832094871680845294825291829020805460ff191686151590811790915591519182527f17307eab39ab6107e8899845ad3d59bd9653f200f220920489ca2b5937696c31910160405180910390a3505050565b61455d848484613f29565b614569848484846148dc565b6134585760405162461bcd60e51b81526004016109d790615ddf565b6000816040516020016145989190615e31565b60405160208183030381529060405280519060200120836040516020016145bf9190615e31565b6040516020818303038152906040528051906020012014905092915050565b6000816040516020016145f391815260200190565b60408051601f19818403018152828252805160209182012090830186905291016145bf565b606061462382613ddd565b6000828152600c60205260408120805461463c90615afd565b80601f016020809104026020016040519081016040528092919081815260200182805461466890615afd565b80156146b55780601f1061468a576101008083540402835291602001916146b5565b820191906000526020600020905b81548152906001019060200180831161469857829003601f168201915b5050505050905060006146c661418a565b905080516000036146d8575092915050565b81511561470a5780826040516020016146f2929190615d44565b60405160208183030381529060405292505050919050565b613f21846149dd565b60006001600160e01b03198216632483248360e11b1480610e2b5750610e2b82614a44565b826001600160a01b031661474b8261235f565b6001600160a01b0316146147715760405162461bcd60e51b81526004016109d790615e4d565b6001600160a01b0382166147d35760405162461bcd60e51b8152602060048201526024808201527f4552433732313a207472616e7366657220746f20746865207a65726f206164646044820152637265737360e01b60648201526084016109d7565b6147e08383836001614a69565b826001600160a01b03166147f38261235f565b6001600160a01b0316146148195760405162461bcd60e51b81526004016109d790615e4d565b600081815260066020908152604080832080546001600160a01b03199081169091556001600160a01b0387811680865260058552838620805460001901905590871680865283862080546001019055868652600490945282852080549092168417909155905184937fddf252ad1be2c89b69c2b068fc378daa952ba7f163c4a11628f55a4df523b3ef91a4505050565b6148b38383614a75565b6148c060008484846148dc565b610ffa5760405162461bcd60e51b81526004016109d790615ddf565b60006001600160a01b0384163b156149d257604051630a85bd0160e11b81526001600160a01b0385169063150b7a0290614920903390899088908890600401615e92565b6020604051808303816000875af192505050801561495b575060408051601f3d908101601f1916820190925261495891810190615ecf565b60015b6149b8573d808015614989576040519150601f19603f3d011682016040523d82523d6000602084013e61498e565b606091505b5080516000036149b05760405162461bcd60e51b81526004016109d790615ddf565b805181602001fd5b6001600160e01b031916630a85bd0160e11b149050613f21565b506001949350505050565b60606149e882613ddd565b60006149f261418a565b90506000815111614a125760405180602001604052806000815250614a3d565b80614a1c84614c0e565b604051602001614a2d929190615d44565b6040516020818303038152906040525b9392505050565b60006001600160e01b0319821663780e9d6360e01b1480610e2b5750610e2b82614ca0565b61345884848484614ce0565b6001600160a01b038216614acb5760405162461bcd60e51b815260206004820181905260248201527f4552433732313a206d696e7420746f20746865207a65726f206164647265737360448201526064016109d7565b6000818152600460205260409020546001600160a01b031615614b305760405162461bcd60e51b815260206004820152601c60248201527f4552433732313a20746f6b656e20616c7265616479206d696e7465640000000060448201526064016109d7565b614b3e600083836001614a69565b6000818152600460205260409020546001600160a01b031615614ba35760405162461bcd60e51b815260206004820152601c60248201527f4552433732313a20746f6b656e20616c7265616479206d696e7465640000000060448201526064016109d7565b6001600160a01b038216600081815260056020908152604080832080546001019055848352600490915280822080546001600160a01b0319168417905551839291907fddf252ad1be2c89b69c2b068fc378daa952ba7f163c4a11628f55a4df523b3ef908290a45050565b60606000614c1b83614e14565b60010190506000816001600160401b03811115614c3a57614c3a615215565b6040519080825280601f01601f191660200182016040528015614c64576020820181803683370190505b5090508181016020015b600019016f181899199a1a9b1b9c1cb0b131b232b360811b600a86061a8153600a8504945084614c6e57509392505050565b60006001600160e01b031982166380ac58cd60e01b1480614cd157506001600160e01b03198216635b5e139f60e01b145b80610e2b5750610e2b82614eec565b6001811115614d4f5760405162461bcd60e51b815260206004820152603560248201527f455243373231456e756d657261626c653a20636f6e7365637574697665207472604482015274185b9cd9995c9cc81b9bdd081cdd5c1c1bdc9d1959605a1b60648201526084016109d7565b816001600160a01b038516614dab57614da681600a80546000838152600b60205260408120829055600182018355919091527fc65a7bb8d6351c1cf70c95a316cc6a92839c986682d98bc35f958f4883f9d2a80155565b614dce565b836001600160a01b0316856001600160a01b031614614dce57614dce8582614f21565b6001600160a01b038416614dea57614de581614fbe565b614e0d565b846001600160a01b0316846001600160a01b031614614e0d57614e0d848261506d565b5050505050565b60008072184f03e93ff9f4daa797ed6e38ed64bf6a1f0160401b8310614e535772184f03e93ff9f4daa797ed6e38ed64bf6a1f0160401b830492506040015b6d04ee2d6d415b85acef81000000008310614e7f576d04ee2d6d415b85acef8100000000830492506020015b662386f26fc100008310614e9d57662386f26fc10000830492506010015b6305f5e1008310614eb5576305f5e100830492506008015b6127108310614ec957612710830492506004015b60648310614edb576064830492506002015b600a8310610e2b5760010192915050565b60006001600160e01b0319821663152a902d60e11b1480610e2b57506301ffc9a760e01b6001600160e01b0319831614610e2b565b60006001614f2e846127f6565b614f389190615d73565b600083815260096020526040902054909150808214614f8b576001600160a01b03841660009081526008602090815260408083208584528252808320548484528184208190558352600990915290208190555b5060009182526009602090815260408084208490556001600160a01b039094168352600881528383209183525290812055565b600a54600090614fd090600190615d73565b6000838152600b6020526040812054600a8054939450909284908110614ff857614ff8615cf5565b9060005260206000200154905080600a838154811061501957615019615cf5565b6000918252602080832090910192909255828152600b9091526040808220849055858252812055600a80548061505157615051615d86565b6001900381819060005260206000200160009055905550505050565b6000615078836127f6565b6001600160a01b039093166000908152600860209081526040808320868452825280832085905593825260099052919091209190915550565b604051806101000160405280600081526020016000815260200160006001600160a01b031681526020016000151581526020016060815260200160001515815260200160008152602001606081525090565b828054828255906000526020600020908101928215615158579160200282015b8281111561515857825182546001600160a01b0319166001600160a01b03909116178255602090920191600190910190615123565b50615164929150615200565b5090565b604051806101a00160405280600081526020016060815260200160006001600160a01b03168152602001600081526020016000815260200160006001600160a01b0316815260200160008152602001600015158152602001600015158152602001600081526020016000815260200160608152602001600081525090565b5080546000825590600052602060002090810190613dcf91905b5b808211156151645760008155600101615201565b634e487b7160e01b600052604160045260246000fd5b60006001600160401b038084111561524557615245615215565b604051601f8501601f19908116603f0116810190828211818310171561526d5761526d615215565b8160405280935085815286868601111561528657600080fd5b858560208301376000602087830101525050509392505050565b600082601f8301126152b157600080fd5b614a3d8383356020850161522b565b600080604083850312156152d357600080fd5b8235915060208301356001600160401b038111156152f057600080fd5b6152fc858286016152a0565b9150509250929050565b6001600160e01b031981168114613dcf57600080fd5b60006020828403121561532e57600080fd5b8135614a3d81615306565b60005b8381101561535457818101518382015260200161533c565b50506000910152565b60008151808452615375816020860160208601615339565b601f01601f19169290920160200192915050565b602081526000614a3d602083018461535d565b6000602082840312156153ae57600080fd5b5035919050565b80356001600160a01b03811681146153cc57600080fd5b919050565b600080604083850312156153e457600080fd5b6153ed836153b5565b946020939093013593505050565b6000806040838503121561540e57600080fd5b8235915061541e602084016153b5565b90509250929050565b60008060006060848603121561543c57600080fd5b615445846153b5565b9250615453602085016153b5565b9150604084013590509250925092565b600081518084526020808501945080840160005b8381101561549c5781516001600160a01b031687529582019590820190600101615477565b509495945050505050565b6000610100825184526020830151602085015260018060a01b03604084015116604085015260608301511515606085015260808301518160808601526154ef8286018261535d565b91505060a083015161550560a086018215159052565b5060c083015160c085015260e083015184820360e08601526155278282615463565b95945050505050565b6000602080830181845280855180835260408601915060408160051b870101925083870160005b8281101561162557603f198886030184526155738583516154a7565b94509285019290850190600101615557565b6000806040838503121561559857600080fd5b50508035926020909101359150565b6000806000606084860312156155bc57600080fd5b6155c5846153b5565b925060208401356001600160401b038111156155e057600080fd5b6155ec868287016152a0565b92505060408401356001600160601b038116811461560957600080fd5b809150509250925092565b803580151581146153cc57600080fd5b6000806040838503121561563757600080fd5b8235915061541e60208401615614565b602081526000614a3d60208301846154a7565b60006020828403121561566c57600080fd5b614a3d826153b5565b608081526000615688608083018761535d565b85602084015282810360408401526156a0818661535d565b91505082606083015295945050505050565b60006101a08251845260208301518160208601526156d28286018261535d565b91505060408301516156ef60408601826001600160a01b03169052565b50606083015160608501526080830151608085015260a083015161571e60a08601826001600160a01b03169052565b5060c083015160c085015260e083015161573c60e086018215159052565b50610100838101511515908501526101208084015190850152610140808401519085015261016080840151858303828701526157788382615463565b61018095860151969095019590955250919392505050565b602081526000614a3d60208301846156b2565b600080600080608085870312156157b957600080fd5b8435935060208501356001600160401b038111156157d657600080fd5b6157e2878288016152a0565b949794965050505060408301359260600135919050565b602081526000614a3d6020830184615463565b6020808252825182820181905260009190848201906040850190845b8181101561584457835183529284019291840191600101615828565b50909695505050505050565b6000806000806080858703121561586657600080fd5b84356001600160401b038082111561587d57600080fd5b615889888389016152a0565b9550602087013591508082111561589f57600080fd5b6158ab888389016152a0565b945060408701359150808211156158c157600080fd5b506158ce878288016152a0565b9250506158dd60608601615614565b905092959194509250565b600080604083850312156158fb57600080fd5b615904836153b5565b915061541e60208401615614565b6000806000806080858703121561592857600080fd5b615931856153b5565b935061593f602086016153b5565b92506040850135915060608501356001600160401b0381111561596157600080fd5b8501601f8101871361597257600080fd5b6159818782356020840161522b565b91505092959194509250565b6000806000606084860312156159a257600080fd5b6159ab846153b5565b925060208401356001600160401b03808211156159c757600080fd5b6159d3878388016152a0565b935060408601359150808211156159e957600080fd5b506159f6868287016152a0565b9150509250925092565b6000602080830181845280855180835260408601915060408160051b870101925083870160005b8281101561162557603f19888603018452615a438583516156b2565b94509285019290850190600101615a27565b608081526000615a68608083018761535d565b8281036020840152615a7a818761535d565b90508460408401528281036060840152615a94818561535d565b979650505050505050565b600060208284031215615ab157600080fd5b81356001600160401b03811115615ac757600080fd5b613f21848285016152a0565b60008060408385031215615ae657600080fd5b615aef836153b5565b915061541e602084016153b5565b600181811c90821680615b1157607f821691505b602082108103615b3157634e487b7160e01b600052602260045260246000fd5b50919050565b634e487b7160e01b600052601160045260246000fd5b80820180821115610e2b57610e2b615b37565b601f821115610ffa57600081815260208120601f850160051c81016020861015615b875750805b601f850160051c820191505b81811015615ba657828155600101615b93565b505050505050565b81516001600160401b03811115615bc757615bc7615215565b615bdb81615bd58454615afd565b84615b60565b602080601f831160018114615c105760008415615bf85750858301515b600019600386901b1c1916600185901b178555615ba6565b600085815260208120601f198616915b82811015615c3f57888601518255948401946001909101908401615c20565b5085821015615c5d5787850151600019600388901b60f8161c191681555b5050505050600190811b01905550565b604081526000615c80604083018561535d565b90508260208301529392505050565b6020808252602d908201527f4552433732313a2063616c6c6572206973206e6f7420746f6b656e206f776e6560408201526c1c881bdc88185c1c1c9bdd9959609a1b606082015260800190565b600060018201615cee57615cee615b37565b5060010190565b634e487b7160e01b600052603260045260246000fd5b8082028115828204841417610e2b57610e2b615b37565b600082615d3f57634e487b7160e01b600052601260045260246000fd5b500490565b60008351615d56818460208801615339565b835190830190615d6a818360208801615339565b01949350505050565b81810381811115610e2b57610e2b615b37565b634e487b7160e01b600052603160045260246000fd5b60208082526023908201527f596f7520617265206e6f7420746865206f776e6572206f7220617574686f72696040820152621e995960ea1b606082015260800190565b60208082526032908201527f4552433732313a207472616e7366657220746f206e6f6e20455243373231526560408201527131b2b4bb32b91034b6b83632b6b2b73a32b960711b606082015260800190565b60008251615e43818460208701615339565b9190910192915050565b60208082526025908201527f4552433732313a207472616e736665722066726f6d20696e636f72726563742060408201526437bbb732b960d91b606082015260800190565b6001600160a01b0385811682528416602082015260408101839052608060608201819052600090615ec59083018461535d565b9695505050505050565b600060208284031215615ee157600080fd5b8151614a3d8161530656fedcabf311e00ee82b128993d7cd81f7eb6f0d5f2825a27cc50f176c8e3cc5777f68747470733a2f2f676174657761792e70696e6174612e636c6f75642f697066732fa2646970667358221220ae61faf3f2a4b14a0344d0d98f2de9927424408cd07722c7f27b8daed50fc6c264736f6c63430008110033",
  "devdoc": {
    "kind": "dev",
    "methods": {
      "approve(address,uint256)": {
        "details": "See {IERC721-approve}."
      },
      "balanceOf(address)": {
        "details": "See {IERC721-balanceOf}."
      },
      "createAuction(uint256,string,uint256,uint256)": {
        "details": "",
        "params": {
          "blocktime": "",
          "startPrice": "",
          "tokenId": "NFTToken ID"
        }
      },
      "endAuction(uint256,uint256)": {
        "details": "",
        "params": {
          "tokenId": "NFTToken ID"
        }
      },
      "getAllAuctions()": {
        "details": "",
        "returns": {
          "_0": ""
        }
      },
      "getApproved(uint256)": {
        "details": "See {IERC721-getApproved}."
      },
      "getAuction(uint256)": {
        "details": "",
        "params": {
          "tokenId": "NFTToken ID"
        },
        "returns": {
          "_0": ""
        }
      },
      "isApprovedForAll(address,address)": {
        "details": "See {IERC721-isApprovedForAll}."
      },
      "name()": {
        "details": "See {IERC721Metadata-name}."
      },
      "owner()": {
        "details": "Returns the address of the current owner."
      },
      "ownerOf(uint256)": {
        "details": "See {IERC721-ownerOf}."
      },
      "placeBid(uint256)": {
        "details": "",
        "params": {
          "tokenId": "NFTToken ID"
        }
      },
      "renounceOwnership()": {
        "details": "Leaves the contract without owner. It will not be possible to call `onlyOwner` functions. Can only be called by the current owner. NOTE: Renouncing ownership will leave the contract without an owner, thereby disabling any functionality that is only available to the owner."
      },
      "royaltyInfo(uint256,uint256)": {
        "details": "Returns how much royalty is owed and to whom, based on a sale price that may be denominated in any unit of exchange. The royalty amount is denominated and should be paid in that same unit of exchange."
      },
      "safeTransferFrom(address,address,uint256)": {
        "details": "See {IERC721-safeTransferFrom}."
      },
      "safeTransferFrom(address,address,uint256,bytes)": {
        "details": "See {IERC721-safeTransferFrom}."
      },
      "setApprovalForAll(address,bool)": {
        "details": "See {IERC721-setApprovalForAll}."
      },
      "symbol()": {
        "details": "See {IERC721Metadata-symbol}."
      },
      "tokenByIndex(uint256)": {
        "details": "See {IERC721Enumerable-tokenByIndex}."
      },
      "tokenOfOwnerByIndex(address,uint256)": {
        "details": "See {IERC721Enumerable-tokenOfOwnerByIndex}."
      },
      "totalSupply()": {
        "details": "See {IERC721Enumerable-totalSupply}."
      },
      "transferFrom(address,address,uint256)": {
        "details": "See {IERC721-transferFrom}."
      },
      "transferOwnership(address)": {
        "details": "Transfers ownership of the contract to a new account (`newOwner`). Can only be called by the current owner."
      }
    },
    "version": 1
  },
  "userdoc": {
    "kind": "user",
    "methods": {},
    "version": 1
  },
  "storageLayout": {
    "storage": [
      {
        "astId": 1916,
        "contract": "contracts/YourCollectible.sol:YourCollectible",
        "label": "_defaultRoyaltyInfo",
        "offset": 0,
        "slot": "0",
        "type": "t_struct(RoyaltyInfo)1913_storage"
      },
      {
        "astId": 1921,
        "contract": "contracts/YourCollectible.sol:YourCollectible",
        "label": "_tokenRoyaltyInfo",
        "offset": 0,
        "slot": "1",
        "type": "t_mapping(t_uint256,t_struct(RoyaltyInfo)1913_storage)"
      },
      {
        "astId": 250,
        "contract": "contracts/YourCollectible.sol:YourCollectible",
        "label": "_name",
        "offset": 0,
        "slot": "2",
        "type": "t_string_storage"
      },
      {
        "astId": 252,
        "contract": "contracts/YourCollectible.sol:YourCollectible",
        "label": "_symbol",
        "offset": 0,
        "slot": "3",
        "type": "t_string_storage"
      },
      {
        "astId": 256,
        "contract": "contracts/YourCollectible.sol:YourCollectible",
        "label": "_owners",
        "offset": 0,
        "slot": "4",
        "type": "t_mapping(t_uint256,t_address)"
      },
      {
        "astId": 260,
        "contract": "contracts/YourCollectible.sol:YourCollectible",
        "label": "_balances",
        "offset": 0,
        "slot": "5",
        "type": "t_mapping(t_address,t_uint256)"
      },
      {
        "astId": 264,
        "contract": "contracts/YourCollectible.sol:YourCollectible",
        "label": "_tokenApprovals",
        "offset": 0,
        "slot": "6",
        "type": "t_mapping(t_uint256,t_address)"
      },
      {
        "astId": 270,
        "contract": "contracts/YourCollectible.sol:YourCollectible",
        "label": "_operatorApprovals",
        "offset": 0,
        "slot": "7",
        "type": "t_mapping(t_address,t_mapping(t_address,t_bool))"
      },
      {
        "astId": 1300,
        "contract": "contracts/YourCollectible.sol:YourCollectible",
        "label": "_ownedTokens",
        "offset": 0,
        "slot": "8",
        "type": "t_mapping(t_address,t_mapping(t_uint256,t_uint256))"
      },
      {
        "astId": 1304,
        "contract": "contracts/YourCollectible.sol:YourCollectible",
        "label": "_ownedTokensIndex",
        "offset": 0,
        "slot": "9",
        "type": "t_mapping(t_uint256,t_uint256)"
      },
      {
        "astId": 1307,
        "contract": "contracts/YourCollectible.sol:YourCollectible",
        "label": "_allTokens",
        "offset": 0,
        "slot": "10",
        "type": "t_array(t_uint256)dyn_storage"
      },
      {
        "astId": 1311,
        "contract": "contracts/YourCollectible.sol:YourCollectible",
        "label": "_allTokensIndex",
        "offset": 0,
        "slot": "11",
        "type": "t_mapping(t_uint256,t_uint256)"
      },
      {
        "astId": 1701,
        "contract": "contracts/YourCollectible.sol:YourCollectible",
        "label": "_tokenURIs",
        "offset": 0,
        "slot": "12",
        "type": "t_mapping(t_uint256,t_string_storage)"
      },
      {
        "astId": 7,
        "contract": "contracts/YourCollectible.sol:YourCollectible",
        "label": "_owner",
        "offset": 0,
        "slot": "13",
        "type": "t_address"
      },
      {
        "astId": 170,
        "contract": "contracts/YourCollectible.sol:YourCollectible",
        "label": "_status",
        "offset": 0,
        "slot": "14",
        "type": "t_uint256"
      },
      {
        "astId": 3795,
        "contract": "contracts/YourCollectible.sol:YourCollectible",
        "label": "_tokenIdCounter",
        "offset": 0,
        "slot": "15",
        "type": "t_struct(Counter)2463_storage"
      },
      {
        "astId": 3798,
        "contract": "contracts/YourCollectible.sol:YourCollectible",
        "label": "_transactionCounter",
        "offset": 0,
        "slot": "16",
        "type": "t_struct(Counter)2463_storage"
      },
      {
        "astId": 3800,
        "contract": "contracts/YourCollectible.sol:YourCollectible",
        "label": "totalFeesCollected",
        "offset": 0,
        "slot": "17",
        "type": "t_uint256"
      },
      {
        "astId": 3985,
        "contract": "contracts/YourCollectible.sol:YourCollectible",
        "label": "_users",
        "offset": 0,
        "slot": "18",
        "type": "t_mapping(t_address,t_struct(User)3969_storage)"
      },
      {
        "astId": 3990,
        "contract": "contracts/YourCollectible.sol:YourCollectible",
        "label": "_Accreditings",
        "offset": 0,
        "slot": "19",
        "type": "t_mapping(t_address,t_struct(Accrediting)3980_storage)"
      },
      {
        "astId": 3995,
        "contract": "contracts/YourCollectible.sol:YourCollectible",
        "label": "_AccreditById",
        "offset": 0,
        "slot": "20",
        "type": "t_mapping(t_uint256,t_struct(Accrediting)3980_storage)"
      },
      {
        "astId": 4238,
        "contract": "contracts/YourCollectible.sol:YourCollectible",
        "label": "_idToNftItem",
        "offset": 0,
        "slot": "21",
        "type": "t_mapping(t_uint256,t_struct(NftItem)4233_storage)"
      },
      {
        "astId": 4241,
        "contract": "contracts/YourCollectible.sol:YourCollectible",
        "label": "_listedTokenIds",
        "offset": 0,
        "slot": "22",
        "type": "t_array(t_uint256)dyn_storage"
      },
      {
        "astId": 4245,
        "contract": "contracts/YourCollectible.sol:YourCollectible",
        "label": "_tokenIdToListedIndex",
        "offset": 0,
        "slot": "23",
        "type": "t_mapping(t_uint256,t_uint256)"
      },
      {
        "astId": 4248,
        "contract": "contracts/YourCollectible.sol:YourCollectible",
        "label": "listingFeePercentage",
        "offset": 0,
        "slot": "24",
        "type": "t_uint256"
      },
      {
        "astId": 4848,
        "contract": "contracts/YourCollectible.sol:YourCollectible",
        "label": "_auctions",
        "offset": 0,
        "slot": "25",
        "type": "t_mapping(t_uint256,t_struct(Auction)4843_storage)"
      },
      {
        "astId": 4854,
        "contract": "contracts/YourCollectible.sol:YourCollectible",
        "label": "_auctionAuthorized",
        "offset": 0,
        "slot": "26",
        "type": "t_mapping(t_uint256,t_mapping(t_address,t_bool))"
      },
      {
        "astId": 4859,
        "contract": "contracts/YourCollectible.sol:YourCollectible",
        "label": "_authorizedAddresses",
        "offset": 0,
        "slot": "27",
        "type": "t_mapping(t_uint256,t_array(t_address)dyn_storage)"
      },
      {
        "astId": 4864,
        "contract": "contracts/YourCollectible.sol:YourCollectible",
        "label": "_addressToAuthorizedTokenIds",
        "offset": 0,
        "slot": "28",
        "type": "t_mapping(t_address,t_array(t_uint256)dyn_storage)"
      }
    ],
    "types": {
      "t_address": {
        "encoding": "inplace",
        "label": "address",
        "numberOfBytes": "20"
      },
      "t_address_payable": {
        "encoding": "inplace",
        "label": "address payable",
        "numberOfBytes": "20"
      },
      "t_array(t_address)dyn_storage": {
        "base": "t_address",
        "encoding": "dynamic_array",
        "label": "address[]",
        "numberOfBytes": "32"
      },
      "t_array(t_uint256)dyn_storage": {
        "base": "t_uint256",
        "encoding": "dynamic_array",
        "label": "uint256[]",
        "numberOfBytes": "32"
      },
      "t_bool": {
        "encoding": "inplace",
        "label": "bool",
        "numberOfBytes": "1"
      },
      "t_bytes32": {
        "encoding": "inplace",
        "label": "bytes32",
        "numberOfBytes": "32"
      },
      "t_mapping(t_address,t_array(t_uint256)dyn_storage)": {
        "encoding": "mapping",
        "key": "t_address",
        "label": "mapping(address => uint256[])",
        "numberOfBytes": "32",
        "value": "t_array(t_uint256)dyn_storage"
      },
      "t_mapping(t_address,t_bool)": {
        "encoding": "mapping",
        "key": "t_address",
        "label": "mapping(address => bool)",
        "numberOfBytes": "32",
        "value": "t_bool"
      },
      "t_mapping(t_address,t_mapping(t_address,t_bool))": {
        "encoding": "mapping",
        "key": "t_address",
        "label": "mapping(address => mapping(address => bool))",
        "numberOfBytes": "32",
        "value": "t_mapping(t_address,t_bool)"
      },
      "t_mapping(t_address,t_mapping(t_uint256,t_uint256))": {
        "encoding": "mapping",
        "key": "t_address",
        "label": "mapping(address => mapping(uint256 => uint256))",
        "numberOfBytes": "32",
        "value": "t_mapping(t_uint256,t_uint256)"
      },
      "t_mapping(t_address,t_struct(Accrediting)3980_storage)": {
        "encoding": "mapping",
        "key": "t_address",
        "label": "mapping(address => struct YourCollectible.Accrediting)",
        "numberOfBytes": "32",
        "value": "t_struct(Accrediting)3980_storage"
      },
      "t_mapping(t_address,t_struct(User)3969_storage)": {
        "encoding": "mapping",
        "key": "t_address",
        "label": "mapping(address => struct YourCollectible.User)",
        "numberOfBytes": "32",
        "value": "t_struct(User)3969_storage"
      },
      "t_mapping(t_address,t_uint256)": {
        "encoding": "mapping",
        "key": "t_address",
        "label": "mapping(address => uint256)",
        "numberOfBytes": "32",
        "value": "t_uint256"
      },
      "t_mapping(t_uint256,t_address)": {
        "encoding": "mapping",
        "key": "t_uint256",
        "label": "mapping(uint256 => address)",
        "numberOfBytes": "32",
        "value": "t_address"
      },
      "t_mapping(t_uint256,t_array(t_address)dyn_storage)": {
        "encoding": "mapping",
        "key": "t_uint256",
        "label": "mapping(uint256 => address[])",
        "numberOfBytes": "32",
        "value": "t_array(t_address)dyn_storage"
      },
      "t_mapping(t_uint256,t_mapping(t_address,t_bool))": {
        "encoding": "mapping",
        "key": "t_uint256",
        "label": "mapping(uint256 => mapping(address => bool))",
        "numberOfBytes": "32",
        "value": "t_mapping(t_address,t_bool)"
      },
      "t_mapping(t_uint256,t_string_storage)": {
        "encoding": "mapping",
        "key": "t_uint256",
        "label": "mapping(uint256 => string)",
        "numberOfBytes": "32",
        "value": "t_string_storage"
      },
      "t_mapping(t_uint256,t_struct(Accrediting)3980_storage)": {
        "encoding": "mapping",
        "key": "t_uint256",
        "label": "mapping(uint256 => struct YourCollectible.Accrediting)",
        "numberOfBytes": "32",
        "value": "t_struct(Accrediting)3980_storage"
      },
      "t_mapping(t_uint256,t_struct(Auction)4843_storage)": {
        "encoding": "mapping",
        "key": "t_uint256",
        "label": "mapping(uint256 => struct YourCollectible.Auction)",
        "numberOfBytes": "32",
        "value": "t_struct(Auction)4843_storage"
      },
      "t_mapping(t_uint256,t_struct(NftItem)4233_storage)": {
        "encoding": "mapping",
        "key": "t_uint256",
        "label": "mapping(uint256 => struct YourCollectible.NftItem)",
        "numberOfBytes": "32",
        "value": "t_struct(NftItem)4233_storage"
      },
      "t_mapping(t_uint256,t_struct(RoyaltyInfo)1913_storage)": {
        "encoding": "mapping",
        "key": "t_uint256",
        "label": "mapping(uint256 => struct ERC2981.RoyaltyInfo)",
        "numberOfBytes": "32",
        "value": "t_struct(RoyaltyInfo)1913_storage"
      },
      "t_mapping(t_uint256,t_uint256)": {
        "encoding": "mapping",
        "key": "t_uint256",
        "label": "mapping(uint256 => uint256)",
        "numberOfBytes": "32",
        "value": "t_uint256"
      },
      "t_string_storage": {
        "encoding": "bytes",
        "label": "string",
        "numberOfBytes": "32"
      },
      "t_struct(Accrediting)3980_storage": {
        "encoding": "inplace",
        "label": "struct YourCollectible.Accrediting",
        "members": [
          {
            "astId": 3971,
            "contract": "contracts/YourCollectible.sol:YourCollectible",
            "label": "name",
            "offset": 0,
            "slot": "0",
            "type": "t_string_storage"
          },
          {
            "astId": 3973,
            "contract": "contracts/YourCollectible.sol:YourCollectible",
            "label": "tokenId",
            "offset": 0,
            "slot": "1",
            "type": "t_uint256"
          },
          {
            "astId": 3975,
            "contract": "contracts/YourCollectible.sol:YourCollectible",
            "label": "messages",
            "offset": 0,
            "slot": "2",
            "type": "t_string_storage"
          },
          {
            "astId": 3977,
            "contract": "contracts/YourCollectible.sol:YourCollectible",
            "label": "owner",
            "offset": 0,
            "slot": "3",
            "type": "t_address"
          },
          {
            "astId": 3979,
            "contract": "contracts/YourCollectible.sol:YourCollectible",
            "label": "time",
            "offset": 0,
            "slot": "4",
            "type": "t_uint256"
          }
        ],
        "numberOfBytes": "160"
      },
      "t_struct(Auction)4843_storage": {
        "encoding": "inplace",
        "label": "struct YourCollectible.Auction",
        "members": [
          {
            "astId": 4817,
            "contract": "contracts/YourCollectible.sol:YourCollectible",
            "label": "tokenId",
            "offset": 0,
            "slot": "0",
            "type": "t_uint256"
          },
          {
            "astId": 4819,
            "contract": "contracts/YourCollectible.sol:YourCollectible",
            "label": "uri",
            "offset": 0,
            "slot": "1",
            "type": "t_string_storage"
          },
          {
            "astId": 4821,
            "contract": "contracts/YourCollectible.sol:YourCollectible",
            "label": "seller",
            "offset": 0,
            "slot": "2",
            "type": "t_address_payable"
          },
          {
            "astId": 4823,
            "contract": "contracts/YourCollectible.sol:YourCollectible",
            "label": "startPrice",
            "offset": 0,
            "slot": "3",
            "type": "t_uint256"
          },
          {
            "astId": 4825,
            "contract": "contracts/YourCollectible.sol:YourCollectible",
            "label": "highestBid",
            "offset": 0,
            "slot": "4",
            "type": "t_uint256"
          },
          {
            "astId": 4827,
            "contract": "contracts/YourCollectible.sol:YourCollectible",
            "label": "highestBidder",
            "offset": 0,
            "slot": "5",
            "type": "t_address_payable"
          },
          {
            "astId": 4829,
            "contract": "contracts/YourCollectible.sol:YourCollectible",
            "label": "endTime",
            "offset": 0,
            "slot": "6",
            "type": "t_uint256"
          },
          {
            "astId": 4831,
            "contract": "contracts/YourCollectible.sol:YourCollectible",
            "label": "isActive",
            "offset": 0,
            "slot": "7",
            "type": "t_bool"
          },
          {
            "astId": 4833,
            "contract": "contracts/YourCollectible.sol:YourCollectible",
            "label": "isroyalty",
            "offset": 1,
            "slot": "7",
            "type": "t_bool"
          },
          {
            "astId": 4835,
            "contract": "contracts/YourCollectible.sol:YourCollectible",
            "label": "num",
            "offset": 0,
            "slot": "8",
            "type": "t_uint256"
          },
          {
            "astId": 4837,
            "contract": "contracts/YourCollectible.sol:YourCollectible",
            "label": "bidCount",
            "offset": 0,
            "slot": "9",
            "type": "t_uint256"
          },
          {
            "astId": 4840,
            "contract": "contracts/YourCollectible.sol:YourCollectible",
            "label": "bidders",
            "offset": 0,
            "slot": "10",
            "type": "t_array(t_address)dyn_storage"
          },
          {
            "astId": 4842,
            "contract": "contracts/YourCollectible.sol:YourCollectible",
            "label": "startTime",
            "offset": 0,
            "slot": "11",
            "type": "t_uint256"
          }
        ],
        "numberOfBytes": "384"
      },
      "t_struct(Counter)2463_storage": {
        "encoding": "inplace",
        "label": "struct Counters.Counter",
        "members": [
          {
            "astId": 2462,
            "contract": "contracts/YourCollectible.sol:YourCollectible",
            "label": "_value",
            "offset": 0,
            "slot": "0",
            "type": "t_uint256"
          }
        ],
        "numberOfBytes": "32"
      },
      "t_struct(NftItem)4233_storage": {
        "encoding": "inplace",
        "label": "struct YourCollectible.NftItem",
        "members": [
          {
            "astId": 4217,
            "contract": "contracts/YourCollectible.sol:YourCollectible",
            "label": "tokenId",
            "offset": 0,
            "slot": "0",
            "type": "t_uint256"
          },
          {
            "astId": 4219,
            "contract": "contracts/YourCollectible.sol:YourCollectible",
            "label": "price",
            "offset": 0,
            "slot": "1",
            "type": "t_uint256"
          },
          {
            "astId": 4221,
            "contract": "contracts/YourCollectible.sol:YourCollectible",
            "label": "seller",
            "offset": 0,
            "slot": "2",
            "type": "t_address_payable"
          },
          {
            "astId": 4223,
            "contract": "contracts/YourCollectible.sol:YourCollectible",
            "label": "isListed",
            "offset": 20,
            "slot": "2",
            "type": "t_bool"
          },
          {
            "astId": 4225,
            "contract": "contracts/YourCollectible.sol:YourCollectible",
            "label": "tokenUri",
            "offset": 0,
            "slot": "3",
            "type": "t_string_storage"
          },
          {
            "astId": 4227,
            "contract": "contracts/YourCollectible.sol:YourCollectible",
            "label": "isAccredited",
            "offset": 0,
            "slot": "4",
            "type": "t_bool"
          },
          {
            "astId": 4229,
            "contract": "contracts/YourCollectible.sol:YourCollectible",
            "label": "accreditedCount",
            "offset": 0,
            "slot": "5",
            "type": "t_uint256"
          },
          {
            "astId": 4232,
            "contract": "contracts/YourCollectible.sol:YourCollectible",
            "label": "accreditedInstitutions",
            "offset": 0,
            "slot": "6",
            "type": "t_array(t_address)dyn_storage"
          }
        ],
        "numberOfBytes": "224"
      },
      "t_struct(RoyaltyInfo)1913_storage": {
        "encoding": "inplace",
        "label": "struct ERC2981.RoyaltyInfo",
        "members": [
          {
            "astId": 1910,
            "contract": "contracts/YourCollectible.sol:YourCollectible",
            "label": "receiver",
            "offset": 0,
            "slot": "0",
            "type": "t_address"
          },
          {
            "astId": 1912,
            "contract": "contracts/YourCollectible.sol:YourCollectible",
            "label": "royaltyFraction",
            "offset": 20,
            "slot": "0",
            "type": "t_uint96"
          }
        ],
        "numberOfBytes": "32"
      },
      "t_struct(User)3969_storage": {
        "encoding": "inplace",
        "label": "struct YourCollectible.User",
        "members": [
          {
            "astId": 3956,
            "contract": "contracts/YourCollectible.sol:YourCollectible",
            "label": "name",
            "offset": 0,
            "slot": "0",
            "type": "t_string_storage"
          },
          {
            "astId": 3958,
            "contract": "contracts/YourCollectible.sol:YourCollectible",
            "label": "password",
            "offset": 0,
            "slot": "1",
            "type": "t_bytes32"
          },
          {
            "astId": 3960,
            "contract": "contracts/YourCollectible.sol:YourCollectible",
            "label": "wallet",
            "offset": 0,
            "slot": "2",
            "type": "t_address_payable"
          },
          {
            "astId": 3962,
            "contract": "contracts/YourCollectible.sol:YourCollectible",
            "label": "bio",
            "offset": 0,
            "slot": "3",
            "type": "t_string_storage"
          },
          {
            "astId": 3964,
            "contract": "contracts/YourCollectible.sol:YourCollectible",
            "label": "isAccrediting",
            "offset": 0,
            "slot": "4",
            "type": "t_bool"
          },
          {
            "astId": 3966,
            "contract": "contracts/YourCollectible.sol:YourCollectible",
            "label": "integral",
            "offset": 0,
            "slot": "5",
            "type": "t_uint256"
          },
          {
            "astId": 3968,
            "contract": "contracts/YourCollectible.sol:YourCollectible",
            "label": "assessUri",
            "offset": 0,
            "slot": "6",
            "type": "t_string_storage"
          }
        ],
        "numberOfBytes": "224"
      },
      "t_uint256": {
        "encoding": "inplace",
        "label": "uint256",
        "numberOfBytes": "32"
      },
      "t_uint96": {
        "encoding": "inplace",
        "label": "uint96",
        "numberOfBytes": "12"
      }
    }
  }
}